{
  "contractName": "DSPF",
  "abi": [
    {
      "inputs": [],
      "stateMutability": "nonpayable",
      "type": "constructor"
    },
    {
      "anonymous": false,
      "inputs": [
        {
          "indexed": false,
          "internalType": "string",
          "name": "orgnizationName",
          "type": "string"
        },
        {
          "indexed": false,
          "internalType": "string",
          "name": "email",
          "type": "string"
        },
        {
          "indexed": false,
          "internalType": "string",
          "name": "phone",
          "type": "string"
        },
        {
          "indexed": false,
          "internalType": "address",
          "name": "addr",
          "type": "address"
        }
      ],
      "name": "createMemEvent",
      "type": "event"
    },
    {
      "anonymous": false,
      "inputs": [
        {
          "indexed": false,
          "internalType": "uint256",
          "name": "datasetID",
          "type": "uint256"
        },
        {
          "indexed": false,
          "internalType": "string",
          "name": "ipfsHash",
          "type": "string"
        },
        {
          "indexed": false,
          "internalType": "address",
          "name": "ownerAddress",
          "type": "address"
        }
      ],
      "name": "uploaDatesetEvent",
      "type": "event"
    },
    {
      "anonymous": false,
      "inputs": [
        {
          "indexed": false,
          "internalType": "uint256",
          "name": "resultID",
          "type": "uint256"
        },
        {
          "indexed": false,
          "internalType": "uint256",
          "name": "cooperationID",
          "type": "uint256"
        },
        {
          "indexed": false,
          "internalType": "string",
          "name": "ipfsHashResult",
          "type": "string"
        }
      ],
      "name": "uploadResEvent",
      "type": "event"
    },
    {
      "inputs": [
        {
          "internalType": "uint256",
          "name": "",
          "type": "uint256"
        },
        {
          "internalType": "uint256",
          "name": "",
          "type": "uint256"
        }
      ],
      "name": "colByDataset",
      "outputs": [
        {
          "internalType": "string",
          "name": "",
          "type": "string"
        }
      ],
      "stateMutability": "view",
      "type": "function",
      "constant": true
    },
    {
      "inputs": [],
      "name": "cooperationCnt",
      "outputs": [
        {
          "internalType": "uint256",
          "name": "",
          "type": "uint256"
        }
      ],
      "stateMutability": "view",
      "type": "function",
      "constant": true
    },
    {
      "inputs": [
        {
          "internalType": "uint256",
          "name": "",
          "type": "uint256"
        },
        {
          "internalType": "uint256",
          "name": "",
          "type": "uint256"
        }
      ],
      "name": "cooperationFile",
      "outputs": [
        {
          "internalType": "string",
          "name": "",
          "type": "string"
        }
      ],
      "stateMutability": "view",
      "type": "function",
      "constant": true
    },
    {
      "inputs": [
        {
          "internalType": "uint256",
          "name": "",
          "type": "uint256"
        }
      ],
      "name": "cooperationID",
      "outputs": [
        {
          "internalType": "uint256",
          "name": "cooperationID",
          "type": "uint256"
        },
        {
          "internalType": "string",
          "name": "target",
          "type": "string"
        },
        {
          "internalType": "bool",
          "name": "getResult",
          "type": "bool"
        },
        {
          "internalType": "string",
          "name": "resultDataset",
          "type": "string"
        },
        {
          "internalType": "address",
          "name": "host",
          "type": "address"
        }
      ],
      "stateMutability": "view",
      "type": "function",
      "constant": true
    },
    {
      "inputs": [
        {
          "internalType": "uint256",
          "name": "",
          "type": "uint256"
        },
        {
          "internalType": "uint256",
          "name": "",
          "type": "uint256"
        }
      ],
      "name": "cooperationMem",
      "outputs": [
        {
          "internalType": "string",
          "name": "orgnizationName",
          "type": "string"
        },
        {
          "internalType": "string",
          "name": "email",
          "type": "string"
        },
        {
          "internalType": "string",
          "name": "phone",
          "type": "string"
        },
        {
          "internalType": "address",
          "name": "addr",
          "type": "address"
        }
      ],
      "stateMutability": "view",
      "type": "function",
      "constant": true
    },
    {
      "inputs": [],
      "name": "datasetCnt",
      "outputs": [
        {
          "internalType": "uint256",
          "name": "",
          "type": "uint256"
        }
      ],
      "stateMutability": "view",
      "type": "function",
      "constant": true
    },
    {
      "inputs": [
        {
          "internalType": "uint256",
          "name": "",
          "type": "uint256"
        }
      ],
      "name": "datasetID",
      "outputs": [
        {
          "internalType": "uint256",
          "name": "datasetID",
          "type": "uint256"
        },
        {
          "internalType": "uint256",
          "name": "privacy",
          "type": "uint256"
        },
        {
          "internalType": "string",
          "name": "ipfsHash",
          "type": "string"
        },
        {
          "internalType": "bool",
          "name": "getResult",
          "type": "bool"
        },
        {
          "internalType": "address",
          "name": "ownerAddress",
          "type": "address"
        }
      ],
      "stateMutability": "view",
      "type": "function",
      "constant": true
    },
    {
      "inputs": [],
      "name": "manager",
      "outputs": [
        {
          "internalType": "address",
          "name": "",
          "type": "address"
        }
      ],
      "stateMutability": "view",
      "type": "function",
      "constant": true
    },
    {
      "inputs": [
        {
          "internalType": "address",
          "name": "",
          "type": "address"
        }
      ],
      "name": "memberCheck",
      "outputs": [
        {
          "internalType": "bool",
          "name": "",
          "type": "bool"
        }
      ],
      "stateMutability": "view",
      "type": "function",
      "constant": true
    },
    {
      "inputs": [
        {
          "internalType": "address",
          "name": "",
          "type": "address"
        }
      ],
      "name": "members",
      "outputs": [
        {
          "internalType": "string",
          "name": "orgnizationName",
          "type": "string"
        },
        {
          "internalType": "string",
          "name": "email",
          "type": "string"
        },
        {
          "internalType": "string",
          "name": "phone",
          "type": "string"
        },
        {
          "internalType": "address",
          "name": "addr",
          "type": "address"
        }
      ],
      "stateMutability": "view",
      "type": "function",
      "constant": true
    },
    {
      "inputs": [
        {
          "internalType": "uint256",
          "name": "",
          "type": "uint256"
        }
      ],
      "name": "resID",
      "outputs": [
        {
          "internalType": "uint256",
          "name": "resultID",
          "type": "uint256"
        },
        {
          "internalType": "uint256",
          "name": "cooperationID",
          "type": "uint256"
        },
        {
          "internalType": "string",
          "name": "ipfsHashResult",
          "type": "string"
        }
      ],
      "stateMutability": "view",
      "type": "function",
      "constant": true
    },
    {
      "inputs": [],
      "name": "resultsetCnt",
      "outputs": [
        {
          "internalType": "uint256",
          "name": "",
          "type": "uint256"
        }
      ],
      "stateMutability": "view",
      "type": "function",
      "constant": true
    },
    {
      "inputs": [
        {
          "internalType": "string",
          "name": "_orgnizationName",
          "type": "string"
        },
        {
          "internalType": "string",
          "name": "_email",
          "type": "string"
        },
        {
          "internalType": "string",
          "name": "_phone",
          "type": "string"
        }
      ],
      "name": "createMember",
      "outputs": [],
      "stateMutability": "nonpayable",
      "type": "function"
    },
    {
      "inputs": [
        {
          "internalType": "string",
          "name": "_ipfsHash",
          "type": "string"
        },
        {
          "internalType": "uint256",
          "name": "_privacy",
          "type": "uint256"
        }
      ],
      "name": "uploadDataset",
      "outputs": [],
      "stateMutability": "nonpayable",
      "type": "function"
    },
    {
      "inputs": [
        {
          "internalType": "uint256",
          "name": "_datasetID",
          "type": "uint256"
        },
        {
          "internalType": "string",
          "name": "_col",
          "type": "string"
        }
      ],
      "name": "addColumn",
      "outputs": [],
      "stateMutability": "nonpayable",
      "type": "function"
    },
    {
      "inputs": [
        {
          "internalType": "string",
          "name": "_target",
          "type": "string"
        }
      ],
      "name": "createCooperation",
      "outputs": [],
      "stateMutability": "nonpayable",
      "type": "function"
    },
    {
      "inputs": [
        {
          "internalType": "uint256",
          "name": "_cooperationID",
          "type": "uint256"
        },
        {
          "components": [
            {
              "internalType": "string",
              "name": "orgnizationName",
              "type": "string"
            },
            {
              "internalType": "string",
              "name": "email",
              "type": "string"
            },
            {
              "internalType": "string",
              "name": "phone",
              "type": "string"
            },
            {
              "internalType": "address",
              "name": "addr",
              "type": "address"
            }
          ],
          "internalType": "struct DSPF.Mem",
          "name": "_mem",
          "type": "tuple"
        }
      ],
      "name": "addCooperationMem",
      "outputs": [],
      "stateMutability": "nonpayable",
      "type": "function"
    },
    {
      "inputs": [
        {
          "internalType": "uint256",
          "name": "_cooperationID",
          "type": "uint256"
        },
        {
          "internalType": "string",
          "name": "_ipfs",
          "type": "string"
        }
      ],
      "name": "addCooperationFile",
      "outputs": [],
      "stateMutability": "nonpayable",
      "type": "function"
    },
    {
      "inputs": [
        {
          "internalType": "uint256",
          "name": "_cooperationID",
          "type": "uint256"
        },
        {
          "internalType": "string",
          "name": "_ipfsHash",
          "type": "string"
        }
      ],
      "name": "uploadResultFile",
      "outputs": [],
      "stateMutability": "nonpayable",
      "type": "function"
    }
  ],
  "bytecode": "0x608060405260006001556000600255600060035534801561001f57600080fd5b50336000806101000a81548173ffffffffffffffffffffffffffffffffffffffff021916908373ffffffffffffffffffffffffffffffffffffffff160217905550611e8a8061006f6000396000f3fe608060405234801561001057600080fd5b50600436106101215760003560e01c80638347ed0a116100ad578063df741b1511610071578063df741b1514610364578063ed40a26f14610380578063f961d4991461039c578063ffb6212a146103b8578063fff9da7e146103d657610121565b80638347ed0a146102965780638b9a939d146102b25780639159cc7e146102e2578063a234c53c14610314578063c6bdf0dd1461034857610121565b8063353cd4a1116100f4578063353cd4a1146101d8578063481c6a751461020c5780634b3996401461022a57806361805f44146102485780637497796c1461026657610121565b806308ae4b0c146101265780631165af401461015957806318a5d6d7146101895780632f06d3f1146101a5575b600080fd5b610140600480360381019061013b91906117ab565b6103f2565b6040516101509493929190611ada565b60405180910390f35b610173600480360381019061016e91906119d1565b61060a565b6040516101809190611ab8565b60405180910390f35b6101a3600480360381019061019e9190611929565b6106d0565b005b6101bf60048036038101906101ba91906119d1565b610820565b6040516101cf9493929190611ada565b60405180910390f35b6101f260048036038101906101ed9190611900565b610a52565b604051610203959493929190611c86565b60405180910390f35b610214610b4d565b6040516102219190611a82565b60405180910390f35b610232610b71565b60405161023f9190611b8e565b60405180910390f35b610250610b77565b60405161025d9190611b8e565b60405180910390f35b610280600480360381019061027b91906117ab565b610b7d565b60405161028d9190611a9d565b60405180910390f35b6102b060048036038101906102ab919061197d565b610b9d565b005b6102cc60048036038101906102c791906119d1565b610c7e565b6040516102d99190611ab8565b60405180910390f35b6102fc60048036038101906102f79190611900565b610d44565b60405161030b93929190611c48565b60405180910390f35b61032e60048036038101906103299190611900565b610e06565b60405161033f959493929190611be7565b60405180910390f35b610362600480360381019061035d9190611815565b610f99565b005b61037e60048036038101906103799190611929565b611156565b005b61039a600480360381019061039591906118ac565b6111a7565b005b6103b660048036038101906103b19190611929565b611359565b005b6103c06113aa565b6040516103cd9190611b8e565b60405180910390f35b6103f060048036038101906103eb91906117d4565b6113b0565b005b6004602052806000526040600020600091509050806000018054600181600116156101000203166002900480601f01602080910402602001604051908101604052809291908181526020018280546001816001161561010002031660029004801561049e5780601f106104735761010080835404028352916020019161049e565b820191906000526020600020905b81548152906001019060200180831161048157829003601f168201915b505050505090806001018054600181600116156101000203166002900480601f01602080910402602001604051908101604052809291908181526020018280546001816001161561010002031660029004801561053c5780601f106105115761010080835404028352916020019161053c565b820191906000526020600020905b81548152906001019060200180831161051f57829003601f168201915b505050505090806002018054600181600116156101000203166002900480601f0160208091040260200160405190810160405280929190818152602001828054600181600116156101000203166002900480156105da5780601f106105af576101008083540402835291602001916105da565b820191906000526020600020905b8154815290600101906020018083116105bd57829003601f168201915b5050505050908060030160009054906101000a900473ffffffffffffffffffffffffffffffffffffffff16905084565b600b602052816000526040600020818154811061062357fe5b90600052602060002001600091509150508054600181600116156101000203166002900480601f0160208091040260200160405190810160405280929190818152602001828054600181600116156101000203166002900480156106c85780601f1061069d576101008083540402835291602001916106c8565b820191906000526020600020905b8154815290600101906020018083116106ab57829003601f168201915b505050505081565b60008054906101000a900473ffffffffffffffffffffffffffffffffffffffff1673ffffffffffffffffffffffffffffffffffffffff163373ffffffffffffffffffffffffffffffffffffffff161461072857600080fd5b6107306114e7565b60036000815480929190600101919050555060405180606001604052806003548152602001848152602001838152509050806007600083600001518152602001908152602001600020600082015181600001556020820151816001015560408201518160020190805190602001906107a9929190611508565b5090505060016008600085815260200190815260200160002060020160006101000a81548160ff0219169083151502179055507fe61d3e67404127cc2ac8d90b9b91880c3d4726c52e771622819eaf753df026558160000151848460405161081393929190611c48565b60405180910390a1505050565b600a602052816000526040600020818154811061083957fe5b906000526020600020906004020160009150915050806000018054600181600116156101000203166002900480601f0160208091040260200160405190810160405280929190818152602001828054600181600116156101000203166002900480156108e65780601f106108bb576101008083540402835291602001916108e6565b820191906000526020600020905b8154815290600101906020018083116108c957829003601f168201915b505050505090806001018054600181600116156101000203166002900480601f0160208091040260200160405190810160405280929190818152602001828054600181600116156101000203166002900480156109845780601f1061095957610100808354040283529160200191610984565b820191906000526020600020905b81548152906001019060200180831161096757829003601f168201915b505050505090806002018054600181600116156101000203166002900480601f016020809104026020016040519081016040528092919081815260200182805460018160011615610100020316600290048015610a225780601f106109f757610100808354040283529160200191610a22565b820191906000526020600020905b815481529060010190602001808311610a0557829003601f168201915b5050505050908060030160009054906101000a900473ffffffffffffffffffffffffffffffffffffffff16905084565b6006602052806000526040600020600091509050806000015490806001015490806002018054600181600116156101000203166002900480601f016020809104026020016040519081016040528092919081815260200182805460018160011615610100020316600290048015610b0a5780601f10610adf57610100808354040283529160200191610b0a565b820191906000526020600020905b815481529060010190602001808311610aed57829003601f168201915b5050505050908060030160009054906101000a900460ff16908060030160019054906101000a900473ffffffffffffffffffffffffffffffffffffffff16905085565b60008054906101000a900473ffffffffffffffffffffffffffffffffffffffff1681565b60035481565b60025481565b60056020528060005260406000206000915054906101000a900460ff1681565b600a60008381526020019081526020016000208190806001815401808255809150506001900390600052602060002090600402016000909190919091506000820151816000019080519060200190610bf6929190611508565b506020820151816001019080519060200190610c13929190611508565b506040820151816002019080519060200190610c30929190611508565b5060608201518160030160006101000a81548173ffffffffffffffffffffffffffffffffffffffff021916908373ffffffffffffffffffffffffffffffffffffffff16021790555050505050565b60096020528160005260406000208181548110610c9757fe5b90600052602060002001600091509150508054600181600116156101000203166002900480601f016020809104026020016040519081016040528092919081815260200182805460018160011615610100020316600290048015610d3c5780601f10610d1157610100808354040283529160200191610d3c565b820191906000526020600020905b815481529060010190602001808311610d1f57829003601f168201915b505050505081565b6007602052806000526040600020600091509050806000015490806001015490806002018054600181600116156101000203166002900480601f016020809104026020016040519081016040528092919081815260200182805460018160011615610100020316600290048015610dfc5780601f10610dd157610100808354040283529160200191610dfc565b820191906000526020600020905b815481529060010190602001808311610ddf57829003601f168201915b5050505050905083565b6008602052806000526040600020600091509050806000015490806001018054600181600116156101000203166002900480601f016020809104026020016040519081016040528092919081815260200182805460018160011615610100020316600290048015610eb85780601f10610e8d57610100808354040283529160200191610eb8565b820191906000526020600020905b815481529060010190602001808311610e9b57829003601f168201915b5050505050908060020160009054906101000a900460ff1690806003018054600181600116156101000203166002900480601f016020809104026020016040519081016040528092919081815260200182805460018160011615610100020316600290048015610f695780601f10610f3e57610100808354040283529160200191610f69565b820191906000526020600020905b815481529060010190602001808311610f4c57829003601f168201915b5050505050908060040160009054906101000a900473ffffffffffffffffffffffffffffffffffffffff16905085565b610fa1611588565b60405180608001604052808581526020018481526020018381526020013373ffffffffffffffffffffffffffffffffffffffff16815250905080600460003373ffffffffffffffffffffffffffffffffffffffff1673ffffffffffffffffffffffffffffffffffffffff1681526020019081526020016000206000820151816000019080519060200190611036929190611508565b506020820151816001019080519060200190611053929190611508565b506040820151816002019080519060200190611070929190611508565b5060608201518160030160006101000a81548173ffffffffffffffffffffffffffffffffffffffff021916908373ffffffffffffffffffffffffffffffffffffffff1602179055509050506001600560003373ffffffffffffffffffffffffffffffffffffffff1673ffffffffffffffffffffffffffffffffffffffff16815260200190815260200160002060006101000a81548160ff0219169083151502179055507f650818a2cdc02e38dec94c8fe55f3250f585e75143a872d7edd65013eaac4812848484336040516111489493929190611b34565b60405180910390a150505050565b60096000838152602001908152602001600020819080600181540180825580915050600190039060005260206000200160009091909190915090805190602001906111a2929190611508565b505050565b60011515600560003373ffffffffffffffffffffffffffffffffffffffff1673ffffffffffffffffffffffffffffffffffffffff16815260200190815260200160002060009054906101000a900460ff1615151461120457600080fd5b61120c6115c6565b6001600081548092919060010191905055506040518060a0016040528060015481526020018381526020018481526020016000151581526020013373ffffffffffffffffffffffffffffffffffffffff168152509050806006600083600001518152602001908152602001600020600082015181600001556020820151816001015560408201518160020190805190602001906112aa929190611508565b5060608201518160030160006101000a81548160ff02191690831515021790555060808201518160030160016101000a81548173ffffffffffffffffffffffffffffffffffffffff021916908373ffffffffffffffffffffffffffffffffffffffff1602179055509050507f4b2916c3596ff494cc9fa8ae45b992de2195d005a4ef46d19b62c6e173b4b5dd8160000151843360405161134c93929190611ba9565b60405180910390a1505050565b600b6000838152602001908152602001600020819080600181540180825580915050600190039060005260206000200160009091909190915090805190602001906113a5929190611508565b505050565b60015481565b6113b861160d565b6002600081548092919060010191905055506040518060a0016040528060025481526020018381526020016000151581526020016040518060200160405280600081525081526020013373ffffffffffffffffffffffffffffffffffffffff16815250905080600860008360000151815260200190815260200160002060008201518160000155602082015181600101908051906020019061145b929190611508565b5060408201518160020160006101000a81548160ff0219169083151502179055506060820151816003019080519060200190611498929190611508565b5060808201518160040160006101000a81548173ffffffffffffffffffffffffffffffffffffffff021916908373ffffffffffffffffffffffffffffffffffffffff1602179055509050505050565b60405180606001604052806000815260200160008152602001606081525090565b828054600181600116156101000203166002900490600052602060002090601f016020900481019282601f1061154957805160ff1916838001178555611577565b82800160010185558215611577579182015b8281111561157657825182559160200191906001019061155b565b5b5090506115849190611654565b5090565b6040518060800160405280606081526020016060815260200160608152602001600073ffffffffffffffffffffffffffffffffffffffff1681525090565b6040518060a00160405280600081526020016000815260200160608152602001600015158152602001600073ffffffffffffffffffffffffffffffffffffffff1681525090565b6040518060a00160405280600081526020016060815260200160001515815260200160608152602001600073ffffffffffffffffffffffffffffffffffffffff1681525090565b5b8082111561166d576000816000905550600101611655565b5090565b60008135905061168081611e26565b92915050565b600082601f83011261169757600080fd5b81356116aa6116a582611d0d565b611ce0565b915080825260208301602083018583830111156116c657600080fd5b6116d1838284611dd3565b50505092915050565b6000608082840312156116ec57600080fd5b6116f66080611ce0565b9050600082013567ffffffffffffffff81111561171257600080fd5b61171e84828501611686565b600083015250602082013567ffffffffffffffff81111561173e57600080fd5b61174a84828501611686565b602083015250604082013567ffffffffffffffff81111561176a57600080fd5b61177684828501611686565b604083015250606061178a84828501611671565b60608301525092915050565b6000813590506117a581611e3d565b92915050565b6000602082840312156117bd57600080fd5b60006117cb84828501611671565b91505092915050565b6000602082840312156117e657600080fd5b600082013567ffffffffffffffff81111561180057600080fd5b61180c84828501611686565b91505092915050565b60008060006060848603121561182a57600080fd5b600084013567ffffffffffffffff81111561184457600080fd5b61185086828701611686565b935050602084013567ffffffffffffffff81111561186d57600080fd5b61187986828701611686565b925050604084013567ffffffffffffffff81111561189657600080fd5b6118a286828701611686565b9150509250925092565b600080604083850312156118bf57600080fd5b600083013567ffffffffffffffff8111156118d957600080fd5b6118e585828601611686565b92505060206118f685828601611796565b9150509250929050565b60006020828403121561191257600080fd5b600061192084828501611796565b91505092915050565b6000806040838503121561193c57600080fd5b600061194a85828601611796565b925050602083013567ffffffffffffffff81111561196757600080fd5b61197385828601611686565b9150509250929050565b6000806040838503121561199057600080fd5b600061199e85828601611796565b925050602083013567ffffffffffffffff8111156119bb57600080fd5b6119c7858286016116da565b9150509250929050565b600080604083850312156119e457600080fd5b60006119f285828601611796565b9250506020611a0385828601611796565b9150509250929050565b611a1681611d9d565b82525050565b611a2581611d55565b82525050565b611a3481611d67565b82525050565b6000611a4582611d39565b611a4f8185611d44565b9350611a5f818560208601611de2565b611a6881611e15565b840191505092915050565b611a7c81611d93565b82525050565b6000602082019050611a976000830184611a1c565b92915050565b6000602082019050611ab26000830184611a2b565b92915050565b60006020820190508181036000830152611ad28184611a3a565b905092915050565b60006080820190508181036000830152611af48187611a3a565b90508181036020830152611b088186611a3a565b90508181036040830152611b1c8185611a3a565b9050611b2b6060830184611a1c565b95945050505050565b60006080820190508181036000830152611b4e8187611a3a565b90508181036020830152611b628186611a3a565b90508181036040830152611b768185611a3a565b9050611b856060830184611a0d565b95945050505050565b6000602082019050611ba36000830184611a73565b92915050565b6000606082019050611bbe6000830186611a73565b8181036020830152611bd08185611a3a565b9050611bdf6040830184611a0d565b949350505050565b600060a082019050611bfc6000830188611a73565b8181036020830152611c0e8187611a3a565b9050611c1d6040830186611a2b565b8181036060830152611c2f8185611a3a565b9050611c3e6080830184611a1c565b9695505050505050565b6000606082019050611c5d6000830186611a73565b611c6a6020830185611a73565b8181036040830152611c7c8184611a3a565b9050949350505050565b600060a082019050611c9b6000830188611a73565b611ca86020830187611a73565b8181036040830152611cba8186611a3a565b9050611cc96060830185611a2b565b611cd66080830184611a1c565b9695505050505050565b6000604051905081810181811067ffffffffffffffff82111715611d0357600080fd5b8060405250919050565b600067ffffffffffffffff821115611d2457600080fd5b601f19601f8301169050602081019050919050565b600081519050919050565b600082825260208201905092915050565b6000611d6082611d73565b9050919050565b60008115159050919050565b600073ffffffffffffffffffffffffffffffffffffffff82169050919050565b6000819050919050565b6000611da882611daf565b9050919050565b6000611dba82611dc1565b9050919050565b6000611dcc82611d73565b9050919050565b82818337600083830152505050565b60005b83811015611e00578082015181840152602081019050611de5565b83811115611e0f576000848401525b50505050565b6000601f19601f8301169050919050565b611e2f81611d55565b8114611e3a57600080fd5b50565b611e4681611d93565b8114611e5157600080fd5b5056fea2646970667358221220368e05ee57bbe22db3aa3de59dbfd845c3117446d9526905e0bab9851ca3bd9764736f6c63430007000033",
  "immutableReferences": {},
  "source": "pragma solidity >=0.7.0 <0.9.0;\r\npragma experimental ABIEncoderV2;\r\ncontract DSPF {\r\n    //\r\n    address public manager;\r\n    \r\n    //ID\r\n    uint public datasetCnt =0;\r\n    \r\n    //ID\r\n    uint public cooperationCnt =0;\r\n    \r\n    //ID\r\n    uint public resultsetCnt =0;\r\n    \r\n    //\r\n    constructor(){\r\n        manager = msg.sender;\r\n    }\r\n    \r\n    //\r\n    struct Mem{\r\n        string orgnizationName;\r\n        string email;\r\n        string phone;\r\n        address addr;\r\n    }\r\n    \r\n    //\r\n    struct Dataset{\r\n        uint datasetID;\r\n        uint privacy;\r\n        string ipfsHash;\r\n        bool getResult;\r\n        address ownerAddress;\r\n    }\r\n\r\n    //\r\n    struct Cooperation{\r\n        uint cooperationID;\r\n        string target;\r\n        bool getResult;\r\n        string resultDataset;\r\n        address host;\r\n    }\r\n\r\n    \r\n    struct ResultDataset{\r\n        uint resultID;\r\n        uint cooperationID;\r\n        string ipfsHashResult;\r\n    }\r\n    \r\n\r\n    //\r\n    modifier memberOnly{\r\n        require(memberCheck[msg.sender]==true);\r\n        _;\r\n    }\r\n\r\n    //\r\n    modifier managerOnly{\r\n        require(msg.sender==manager);\r\n        _;\r\n    }\r\n    \r\n    //map\r\n    mapping (address => Mem) public members;\r\n    \r\n    //\r\n    mapping (address => bool) public memberCheck;\r\n\r\n    //ID\r\n    mapping (uint => Dataset) public datasetID;\r\n\r\n\r\n    mapping (uint => ResultDataset) public resID;\r\n    \r\n    \r\n    mapping (uint => Cooperation) public cooperationID;\r\n    \r\n    mapping (uint => string[]) public colByDataset;\r\n    \r\n    mapping (uint => Mem[]) public cooperationMem;\r\n\r\n    mapping (uint => string[]) public cooperationFile;\r\n\r\n    event createMemEvent(\r\n        string orgnizationName,\r\n        string email,\r\n        string phone,\r\n        address addr\r\n    );\r\n    \r\n    event uploaDatesetEvent(\r\n        uint datasetID,\r\n        string ipfsHash,\r\n        address ownerAddress\r\n    );\r\n    \r\n    event uploadResEvent(\r\n        uint resultID,\r\n        uint cooperationID,\r\n        string ipfsHashResult\r\n    );\r\n    \r\n    //\r\n    function createMember(string memory _orgnizationName, string memory _email, string memory _phone)public{\r\n        Mem memory m;\r\n        m = Mem({\r\n            orgnizationName: _orgnizationName,\r\n            email: _email,\r\n            phone:_phone,\r\n            addr: msg.sender\r\n        });\r\n        members[msg.sender] = m;\r\n        memberCheck[msg.sender]=true;\r\n        emit createMemEvent(\r\n            _orgnizationName,\r\n            _email,\r\n            _phone,\r\n            msg.sender\r\n        );\r\n    }\r\n      \r\n    //\r\n    function uploadDataset(string memory _ipfsHash ,uint _privacy) public memberOnly{\r\n        Dataset memory dataset;\r\n        datasetCnt++;\r\n        \r\n        dataset=Dataset({\r\n            datasetID : datasetCnt,\r\n            ipfsHash : _ipfsHash,\r\n            privacy:_privacy,\r\n            getResult : false,\r\n            ownerAddress :msg.sender\r\n        });\r\n        \r\n        datasetID[dataset.datasetID] = dataset;\r\n        \r\n        emit uploaDatesetEvent(\r\n            dataset.datasetID,\r\n            _ipfsHash,\r\n            msg.sender\r\n        );\r\n    }\r\n\r\n    function addColumn(uint _datasetID,string memory _col) public {\r\n        colByDataset[_datasetID].push(_col);\r\n    }\r\n    \r\n    \r\n    function createCooperation( string memory _target) public{\r\n        Cooperation memory coo ;\r\n        cooperationCnt++;\r\n        \r\n        coo=Cooperation({\r\n            cooperationID:cooperationCnt,\r\n            target:_target,\r\n            getResult:false,\r\n            resultDataset:'',\r\n            host:msg.sender\r\n        });\r\n        cooperationID[coo.cooperationID]=coo;\r\n    }\r\n    \r\n    \r\n    function addCooperationMem(uint _cooperationID,Mem memory _mem) public {\r\n        cooperationMem[_cooperationID].push(_mem);\r\n    }\r\n    \r\n    \r\n    function addCooperationFile(uint _cooperationID,string memory _ipfs) public {\r\n        cooperationFile[_cooperationID].push(_ipfs);\r\n    }\r\n    \r\n    function uploadResultFile(uint _cooperationID ,string memory _ipfsHash) public managerOnly{\r\n        ResultDataset memory RD;\r\n        resultsetCnt++;\r\n        RD=ResultDataset({\r\n            resultID:resultsetCnt,\r\n            cooperationID:_cooperationID,\r\n            ipfsHashResult:_ipfsHash\r\n        });\r\n        resID[RD.resultID]=RD;\r\n        cooperationID[_cooperationID].getResult=true;\r\n        \r\n        emit uploadResEvent(\r\n            RD.resultID,\r\n            _cooperationID,\r\n            _ipfsHash\r\n        );\r\n    }\r\n\r\n    \r\n}\r\n\r\n",
  "sourcePath": "C:\\Users\\user\\Desktop\\DataSharePlatform\\src\\contracts\\DSPF.sol",
  "compiler": {
    "name": "solc",
    "version": "0.7.0+commit.9e61f92b.Emscripten.clang"
  },
  "schemaVersion": "3.4.3",
  "updatedAt": "2021-11-23T12:44:42.930Z",
  "networkType": "ethereum",
  "devdoc": {
    "kind": "dev",
    "methods": {},
    "version": 1
  },
  "userdoc": {
    "kind": "user",
    "methods": {},
    "version": 1
  }
}