{
  "contractName": "DSPF",
  "abi": [
    {
      "inputs": [],
      "stateMutability": "nonpayable",
      "type": "constructor"
    },
    {
      "anonymous": false,
      "inputs": [
        {
          "indexed": false,
          "internalType": "uint256",
          "name": "datasetID",
          "type": "uint256"
        },
        {
          "indexed": false,
          "internalType": "string",
          "name": "col",
          "type": "string"
        }
      ],
      "name": "addData",
      "type": "event"
    },
    {
      "anonymous": false,
      "inputs": [
        {
          "indexed": false,
          "internalType": "uint256",
          "name": "memCnt",
          "type": "uint256"
        },
        {
          "indexed": false,
          "internalType": "string",
          "name": "memName",
          "type": "string"
        }
      ],
      "name": "addMem",
      "type": "event"
    },
    {
      "anonymous": false,
      "inputs": [
        {
          "indexed": false,
          "internalType": "uint256",
          "name": "cooperationID",
          "type": "uint256"
        },
        {
          "indexed": false,
          "internalType": "string",
          "name": "target",
          "type": "string"
        },
        {
          "indexed": false,
          "internalType": "string",
          "name": "miningFun",
          "type": "string"
        },
        {
          "indexed": false,
          "internalType": "string",
          "name": "hostName",
          "type": "string"
        }
      ],
      "name": "createCooperationEvent",
      "type": "event"
    },
    {
      "anonymous": false,
      "inputs": [
        {
          "indexed": false,
          "internalType": "string",
          "name": "orgnizationName",
          "type": "string"
        },
        {
          "indexed": false,
          "internalType": "string",
          "name": "email",
          "type": "string"
        },
        {
          "indexed": false,
          "internalType": "string",
          "name": "phone",
          "type": "string"
        },
        {
          "indexed": false,
          "internalType": "address",
          "name": "addr",
          "type": "address"
        }
      ],
      "name": "createMemEvent",
      "type": "event"
    },
    {
      "anonymous": false,
      "inputs": [
        {
          "indexed": false,
          "internalType": "string",
          "name": "col",
          "type": "string"
        }
      ],
      "name": "getData",
      "type": "event"
    },
    {
      "anonymous": false,
      "inputs": [
        {
          "indexed": false,
          "internalType": "string",
          "name": "col",
          "type": "string"
        }
      ],
      "name": "setData",
      "type": "event"
    },
    {
      "anonymous": false,
      "inputs": [
        {
          "indexed": false,
          "internalType": "uint256",
          "name": "_cooperationID",
          "type": "uint256"
        },
        {
          "indexed": false,
          "internalType": "uint256",
          "name": "datasetID",
          "type": "uint256"
        },
        {
          "indexed": false,
          "internalType": "address",
          "name": "ownerAddress",
          "type": "address"
        }
      ],
      "name": "setDatesetEvent",
      "type": "event"
    },
    {
      "inputs": [],
      "name": "cooperationCnt",
      "outputs": [
        {
          "internalType": "uint256",
          "name": "",
          "type": "uint256"
        }
      ],
      "stateMutability": "view",
      "type": "function"
    },
    {
      "inputs": [
        {
          "internalType": "uint256",
          "name": "",
          "type": "uint256"
        },
        {
          "internalType": "address",
          "name": "",
          "type": "address"
        }
      ],
      "name": "cooperationDatas",
      "outputs": [
        {
          "internalType": "uint256",
          "name": "cooperationID",
          "type": "uint256"
        },
        {
          "internalType": "uint256",
          "name": "datasetID",
          "type": "uint256"
        },
        {
          "internalType": "string",
          "name": "ipfsHash",
          "type": "string"
        },
        {
          "internalType": "address",
          "name": "ownerAddress",
          "type": "address"
        },
        {
          "internalType": "uint256",
          "name": "colCnt",
          "type": "uint256"
        }
      ],
      "stateMutability": "view",
      "type": "function"
    },
    {
      "inputs": [
        {
          "internalType": "uint256",
          "name": "",
          "type": "uint256"
        },
        {
          "internalType": "uint256",
          "name": "",
          "type": "uint256"
        }
      ],
      "name": "cooperationMems",
      "outputs": [
        {
          "internalType": "string",
          "name": "orgnizationName",
          "type": "string"
        },
        {
          "internalType": "string",
          "name": "email",
          "type": "string"
        },
        {
          "internalType": "string",
          "name": "phone",
          "type": "string"
        },
        {
          "internalType": "address",
          "name": "addr",
          "type": "address"
        },
        {
          "internalType": "uint256",
          "name": "cooCnt",
          "type": "uint256"
        }
      ],
      "stateMutability": "view",
      "type": "function"
    },
    {
      "inputs": [
        {
          "internalType": "uint256",
          "name": "",
          "type": "uint256"
        }
      ],
      "name": "cooperations",
      "outputs": [
        {
          "internalType": "uint256",
          "name": "cooperationID",
          "type": "uint256"
        },
        {
          "internalType": "string",
          "name": "target",
          "type": "string"
        },
        {
          "internalType": "string",
          "name": "miningFun",
          "type": "string"
        },
        {
          "internalType": "address",
          "name": "host",
          "type": "address"
        },
        {
          "internalType": "uint256",
          "name": "memCnt",
          "type": "uint256"
        },
        {
          "internalType": "uint256",
          "name": "dataCnt",
          "type": "uint256"
        },
        {
          "internalType": "bool",
          "name": "getResult",
          "type": "bool"
        }
      ],
      "stateMutability": "view",
      "type": "function"
    },
    {
      "inputs": [],
      "name": "datasetCnt",
      "outputs": [
        {
          "internalType": "uint256",
          "name": "",
          "type": "uint256"
        }
      ],
      "stateMutability": "view",
      "type": "function"
    },
    {
      "inputs": [
        {
          "internalType": "uint256",
          "name": "",
          "type": "uint256"
        }
      ],
      "name": "datasets",
      "outputs": [
        {
          "internalType": "uint256",
          "name": "cooperationID",
          "type": "uint256"
        },
        {
          "internalType": "uint256",
          "name": "datasetID",
          "type": "uint256"
        },
        {
          "internalType": "string",
          "name": "ipfsHash",
          "type": "string"
        },
        {
          "internalType": "address",
          "name": "ownerAddress",
          "type": "address"
        },
        {
          "internalType": "uint256",
          "name": "colCnt",
          "type": "uint256"
        }
      ],
      "stateMutability": "view",
      "type": "function"
    },
    {
      "inputs": [
        {
          "internalType": "uint256",
          "name": "",
          "type": "uint256"
        },
        {
          "internalType": "uint256",
          "name": "",
          "type": "uint256"
        }
      ],
      "name": "datasetsCol",
      "outputs": [
        {
          "internalType": "string",
          "name": "",
          "type": "string"
        }
      ],
      "stateMutability": "view",
      "type": "function"
    },
    {
      "inputs": [],
      "name": "manager",
      "outputs": [
        {
          "internalType": "address",
          "name": "",
          "type": "address"
        }
      ],
      "stateMutability": "view",
      "type": "function"
    },
    {
      "inputs": [
        {
          "internalType": "address",
          "name": "",
          "type": "address"
        }
      ],
      "name": "memberCheck",
      "outputs": [
        {
          "internalType": "bool",
          "name": "",
          "type": "bool"
        }
      ],
      "stateMutability": "view",
      "type": "function"
    },
    {
      "inputs": [
        {
          "internalType": "address",
          "name": "",
          "type": "address"
        },
        {
          "internalType": "uint256",
          "name": "",
          "type": "uint256"
        }
      ],
      "name": "memberCooperations",
      "outputs": [
        {
          "internalType": "uint256",
          "name": "cooperationID",
          "type": "uint256"
        },
        {
          "internalType": "string",
          "name": "target",
          "type": "string"
        },
        {
          "internalType": "string",
          "name": "miningFun",
          "type": "string"
        },
        {
          "internalType": "address",
          "name": "host",
          "type": "address"
        },
        {
          "internalType": "uint256",
          "name": "memCnt",
          "type": "uint256"
        },
        {
          "internalType": "uint256",
          "name": "dataCnt",
          "type": "uint256"
        },
        {
          "internalType": "bool",
          "name": "getResult",
          "type": "bool"
        }
      ],
      "stateMutability": "view",
      "type": "function"
    },
    {
      "inputs": [
        {
          "internalType": "address",
          "name": "",
          "type": "address"
        }
      ],
      "name": "members",
      "outputs": [
        {
          "internalType": "string",
          "name": "orgnizationName",
          "type": "string"
        },
        {
          "internalType": "string",
          "name": "email",
          "type": "string"
        },
        {
          "internalType": "string",
          "name": "phone",
          "type": "string"
        },
        {
          "internalType": "address",
          "name": "addr",
          "type": "address"
        },
        {
          "internalType": "uint256",
          "name": "cooCnt",
          "type": "uint256"
        }
      ],
      "stateMutability": "view",
      "type": "function"
    },
    {
      "inputs": [
        {
          "internalType": "string",
          "name": "_orgnizationName",
          "type": "string"
        },
        {
          "internalType": "string",
          "name": "_email",
          "type": "string"
        },
        {
          "internalType": "string",
          "name": "_phone",
          "type": "string"
        }
      ],
      "name": "createMember",
      "outputs": [],
      "stateMutability": "nonpayable",
      "type": "function"
    },
    {
      "inputs": [
        {
          "internalType": "uint256",
          "name": "_cooperationID",
          "type": "uint256"
        }
      ],
      "name": "setDataset",
      "outputs": [],
      "stateMutability": "nonpayable",
      "type": "function"
    },
    {
      "inputs": [
        {
          "internalType": "uint256",
          "name": "_datasetID",
          "type": "uint256"
        },
        {
          "internalType": "uint256",
          "name": "_dataIdx",
          "type": "uint256"
        }
      ],
      "name": "getColumn",
      "outputs": [
        {
          "internalType": "string",
          "name": "",
          "type": "string"
        }
      ],
      "stateMutability": "view",
      "type": "function"
    },
    {
      "inputs": [
        {
          "internalType": "uint256",
          "name": "_datasetID",
          "type": "uint256"
        },
        {
          "internalType": "string",
          "name": "_col",
          "type": "string"
        }
      ],
      "name": "addColumn",
      "outputs": [],
      "stateMutability": "nonpayable",
      "type": "function"
    },
    {
      "inputs": [
        {
          "internalType": "string",
          "name": "_target",
          "type": "string"
        },
        {
          "internalType": "string",
          "name": "_miningFun",
          "type": "string"
        }
      ],
      "name": "createCooperation",
      "outputs": [],
      "stateMutability": "nonpayable",
      "type": "function"
    },
    {
      "inputs": [
        {
          "internalType": "uint256",
          "name": "_cooperationID",
          "type": "uint256"
        },
        {
          "internalType": "uint256",
          "name": "_memIdx",
          "type": "uint256"
        }
      ],
      "name": "getCooMemName",
      "outputs": [
        {
          "internalType": "string",
          "name": "",
          "type": "string"
        }
      ],
      "stateMutability": "view",
      "type": "function"
    },
    {
      "inputs": [
        {
          "internalType": "uint256",
          "name": "_cooperationID",
          "type": "uint256"
        },
        {
          "internalType": "uint256",
          "name": "_memIdx",
          "type": "uint256"
        }
      ],
      "name": "getCooMemPhone",
      "outputs": [
        {
          "internalType": "string",
          "name": "",
          "type": "string"
        }
      ],
      "stateMutability": "view",
      "type": "function"
    },
    {
      "inputs": [
        {
          "internalType": "uint256",
          "name": "_cooperationID",
          "type": "uint256"
        },
        {
          "internalType": "uint256",
          "name": "_memIdx",
          "type": "uint256"
        }
      ],
      "name": "getCooMemEmail",
      "outputs": [
        {
          "internalType": "string",
          "name": "",
          "type": "string"
        }
      ],
      "stateMutability": "view",
      "type": "function"
    },
    {
      "inputs": [
        {
          "internalType": "uint256",
          "name": "_cooperationID",
          "type": "uint256"
        },
        {
          "internalType": "uint256",
          "name": "_memIdx",
          "type": "uint256"
        }
      ],
      "name": "getCooMemAddr",
      "outputs": [
        {
          "internalType": "address",
          "name": "",
          "type": "address"
        }
      ],
      "stateMutability": "view",
      "type": "function"
    },
    {
      "inputs": [
        {
          "internalType": "uint256",
          "name": "_cooperationID",
          "type": "uint256"
        }
      ],
      "name": "addCooperationMem",
      "outputs": [],
      "stateMutability": "nonpayable",
      "type": "function"
    },
    {
      "inputs": [
        {
          "internalType": "uint256",
          "name": "_cooperationID",
          "type": "uint256"
        },
        {
          "internalType": "address",
          "name": "owner",
          "type": "address"
        }
      ],
      "name": "getDataset",
      "outputs": [
        {
          "components": [
            {
              "internalType": "uint256",
              "name": "cooperationID",
              "type": "uint256"
            },
            {
              "internalType": "uint256",
              "name": "datasetID",
              "type": "uint256"
            },
            {
              "internalType": "string",
              "name": "ipfsHash",
              "type": "string"
            },
            {
              "internalType": "address",
              "name": "ownerAddress",
              "type": "address"
            },
            {
              "internalType": "uint256",
              "name": "colCnt",
              "type": "uint256"
            }
          ],
          "internalType": "struct DSPF.Dataset",
          "name": "",
          "type": "tuple"
        }
      ],
      "stateMutability": "view",
      "type": "function"
    },
    {
      "inputs": [
        {
          "internalType": "address",
          "name": "owner",
          "type": "address"
        },
        {
          "internalType": "uint256",
          "name": "idx",
          "type": "uint256"
        }
      ],
      "name": "getCooperation",
      "outputs": [
        {
          "components": [
            {
              "internalType": "uint256",
              "name": "cooperationID",
              "type": "uint256"
            },
            {
              "internalType": "string",
              "name": "target",
              "type": "string"
            },
            {
              "internalType": "string",
              "name": "miningFun",
              "type": "string"
            },
            {
              "internalType": "address",
              "name": "host",
              "type": "address"
            },
            {
              "internalType": "uint256",
              "name": "memCnt",
              "type": "uint256"
            },
            {
              "internalType": "uint256",
              "name": "dataCnt",
              "type": "uint256"
            },
            {
              "internalType": "bool",
              "name": "getResult",
              "type": "bool"
            }
          ],
          "internalType": "struct DSPF.Cooperation",
          "name": "",
          "type": "tuple"
        }
      ],
      "stateMutability": "view",
      "type": "function"
    }
  ],
  "bytecode": "0x60806040526000600155600060025534801561001a57600080fd5b50336000806101000a81548173ffffffffffffffffffffffffffffffffffffffff021916908373ffffffffffffffffffffffffffffffffffffffff1602179055506131f78061006a6000396000f3fe608060405234801561001057600080fd5b506004361061014d5760003560e01c80637497796c116100c3578063bd9b56c01161007c578063bd9b56c01461044e578063c6bdf0dd1461047e578063d1cc8fcc1461049a578063df741b15146104b6578063ebd84a78146104d2578063ffb6212a146105065761014d565b80637497796c1461032e5780637829bc5a1461035e5780639b1a0cb71461038e578063a7a07935146103be578063af39df70146103ee578063babd597a1461041e5761014d565b80632f27e057116101155780632f27e0571461023a578063341bbab21461027057806346dc315e146102a6578063481c6a75146102d657806361805f44146102f45780636e7b0779146103125761014d565b8063034c2ef01461015257806308ae4b0c1461016e57806308b1db26146101a257806314322f62146101d25780631cff85e114610206575b600080fd5b61016c6004803603810190610167919061289b565b610524565b005b61018860048036038101906101839190612836565b610ada565b604051610199959493929190612dc8565b60405180910390f35b6101bc60048036038101906101b79190612a57565b610cf8565b6040516101c99190612d4c565b60405180910390f35b6101ec60048036038101906101e791906129c7565b610dc2565b6040516101fd959493929190612fcd565b60405180910390f35b610220600480360381019061021b919061299e565b610ebd565b604051610231959493929190612fcd565b60405180910390f35b610254600480360381019061024f919061285f565b610fab565b6040516102679796959493929190612e8f565b60405180910390f35b61028a6004803603810190610285919061299e565b611157565b60405161029d9796959493929190612e8f565b60405180910390f35b6102c060048036038101906102bb9190612a57565b6112f6565b6040516102cd9190612d4c565b60405180910390f35b6102de6113c0565b6040516102eb9190612d16565b60405180910390f35b6102fc6113e4565b6040516103099190612e74565b60405180910390f35b61032c6004803603810190610327919061299e565b6113ea565b005b61034860048036038101906103439190612836565b6116e4565b6040516103559190612d31565b60405180910390f35b6103786004803603810190610373919061285f565b611704565b6040516103859190612e30565b60405180910390f35b6103a860048036038101906103a39190612a57565b611942565b6040516103b59190612d4c565b60405180910390f35b6103d860048036038101906103d39190612a57565b611a09565b6040516103e59190612d4c565b60405180910390f35b61040860048036038101906104039190612a57565b611ad3565b6040516104159190612d4c565b60405180910390f35b610438600480360381019061043391906129c7565b611b90565b6040516104459190612e52565b60405180910390f35b61046860048036038101906104639190612a57565b611d27565b6040516104759190612d16565b60405180910390f35b61049860048036038101906104939190612907565b611d79565b005b6104b460048036038101906104af919061299e565b611f3b565b005b6104d060048036038101906104cb9190612a03565b612350565b005b6104ec60048036038101906104e79190612a57565b6123c9565b6040516104fd959493929190612dc8565b60405180910390f35b61050e6125f4565b60405161051b9190612e74565b60405180910390f35b60011515600460003373ffffffffffffffffffffffffffffffffffffffff1673ffffffffffffffffffffffffffffffffffffffff16815260200190815260200160002060009054906101000a900460ff1615151461058157600080fd5b6040518060e0016040528060025481526020018381526020018281526020013373ffffffffffffffffffffffffffffffffffffffff16815260200160008152602001600081526020016000151581525060076000600254815260200190815260200160002060008201518160000155602082015181600101908051906020019061060c9291906125fa565b5060408201518160020190805190602001906106299291906125fa565b5060608201518160030160006101000a81548173ffffffffffffffffffffffffffffffffffffffff021916908373ffffffffffffffffffffffffffffffffffffffff1602179055506080820151816004015560a0820151816005015560c08201518160060160006101000a81548160ff021916908315150217905550905050600760006002548152602001908152602001600020600a60003373ffffffffffffffffffffffffffffffffffffffff1673ffffffffffffffffffffffffffffffffffffffff1681526020019081526020016000206000600360003373ffffffffffffffffffffffffffffffffffffffff1673ffffffffffffffffffffffffffffffffffffffff168152602001908152602001600020600401548152602001908152602001600020600082015481600001556001820181600101908054600181600116156101000203166002900461078092919061267a565b50600282018160020190805460018160011615610100020316600290046107a892919061267a565b506003820160009054906101000a900473ffffffffffffffffffffffffffffffffffffffff168160030160006101000a81548173ffffffffffffffffffffffffffffffffffffffff021916908373ffffffffffffffffffffffffffffffffffffffff16021790555060048201548160040155600582015481600501556006820160009054906101000a900460ff168160060160006101000a81548160ff021916908315150217905550905050600360003373ffffffffffffffffffffffffffffffffffffffff1673ffffffffffffffffffffffffffffffffffffffff16815260200190815260200160002060040160008154809291906001019190505550600360003373ffffffffffffffffffffffffffffffffffffffff1673ffffffffffffffffffffffffffffffffffffffff16815260200190815260200160002060086000600254815260200190815260200160002060008081526020019081526020016000206000820181600001908054600181600116156101000203166002900461093292919061267a565b506001820181600101908054600181600116156101000203166002900461095a92919061267a565b506002820181600201908054600181600116156101000203166002900461098292919061267a565b506003820160009054906101000a900473ffffffffffffffffffffffffffffffffffffffff168160030160006101000a81548173ffffffffffffffffffffffffffffffffffffffff021916908373ffffffffffffffffffffffffffffffffffffffff16021790555060048201548160040155905050600760006002548152602001908152602001600020600401600081548092919060010191905055507f781ec2e6b52a013b6fd429273314010678e4b4ac7dcf574af71b2b535efd88ec600760006002548152602001908152602001600020600001546007600060025481526020019081526020016000206001016007600060025481526020019081526020016000206002016008600060025481526020019081526020016000206000808152602001908152602001600020600001604051610ac29493929190612f3c565b60405180910390a16001600254016002819055505050565b6003602052806000526040600020600091509050806000018054600181600116156101000203166002900480601f016020809104026020016040519081016040528092919081815260200182805460018160011615610100020316600290048015610b865780601f10610b5b57610100808354040283529160200191610b86565b820191906000526020600020905b815481529060010190602001808311610b6957829003601f168201915b505050505090806001018054600181600116156101000203166002900480601f016020809104026020016040519081016040528092919081815260200182805460018160011615610100020316600290048015610c245780601f10610bf957610100808354040283529160200191610c24565b820191906000526020600020905b815481529060010190602001808311610c0757829003601f168201915b505050505090806002018054600181600116156101000203166002900480601f016020809104026020016040519081016040528092919081815260200182805460018160011615610100020316600290048015610cc25780601f10610c9757610100808354040283529160200191610cc2565b820191906000526020600020905b815481529060010190602001808311610ca557829003601f168201915b5050505050908060030160009054906101000a900473ffffffffffffffffffffffffffffffffffffffff16908060040154905085565b60606008600084815260200190815260200160002060008381526020019081526020016000206002018054600181600116156101000203166002900480601f016020809104026020016040519081016040528092919081815260200182805460018160011615610100020316600290048015610db55780601f10610d8a57610100808354040283529160200191610db5565b820191906000526020600020905b815481529060010190602001808311610d9857829003601f168201915b5050505050905092915050565b600960205281600052604060002060205280600052604060002060009150915050806000015490806001015490806002018054600181600116156101000203166002900480601f016020809104026020016040519081016040528092919081815260200182805460018160011615610100020316600290048015610e875780601f10610e5c57610100808354040283529160200191610e87565b820191906000526020600020905b815481529060010190602001808311610e6a57829003601f168201915b5050505050908060030160009054906101000a900473ffffffffffffffffffffffffffffffffffffffff16908060040154905085565b6005602052806000526040600020600091509050806000015490806001015490806002018054600181600116156101000203166002900480601f016020809104026020016040519081016040528092919081815260200182805460018160011615610100020316600290048015610f755780601f10610f4a57610100808354040283529160200191610f75565b820191906000526020600020905b815481529060010190602001808311610f5857829003601f168201915b5050505050908060030160009054906101000a900473ffffffffffffffffffffffffffffffffffffffff16908060040154905085565b600a60205281600052604060002060205280600052604060002060009150915050806000015490806001018054600181600116156101000203166002900480601f01602080910402602001604051908101604052809291908181526020018280546001816001161561010002031660029004801561106a5780601f1061103f5761010080835404028352916020019161106a565b820191906000526020600020905b81548152906001019060200180831161104d57829003601f168201915b505050505090806002018054600181600116156101000203166002900480601f0160208091040260200160405190810160405280929190818152602001828054600181600116156101000203166002900480156111085780601f106110dd57610100808354040283529160200191611108565b820191906000526020600020905b8154815290600101906020018083116110eb57829003601f168201915b5050505050908060030160009054906101000a900473ffffffffffffffffffffffffffffffffffffffff16908060040154908060050154908060060160009054906101000a900460ff16905087565b6007602052806000526040600020600091509050806000015490806001018054600181600116156101000203166002900480601f0160208091040260200160405190810160405280929190818152602001828054600181600116156101000203166002900480156112095780601f106111de57610100808354040283529160200191611209565b820191906000526020600020905b8154815290600101906020018083116111ec57829003601f168201915b505050505090806002018054600181600116156101000203166002900480601f0160208091040260200160405190810160405280929190818152602001828054600181600116156101000203166002900480156112a75780601f1061127c576101008083540402835291602001916112a7565b820191906000526020600020905b81548152906001019060200180831161128a57829003601f168201915b5050505050908060030160009054906101000a900473ffffffffffffffffffffffffffffffffffffffff16908060040154908060050154908060060160009054906101000a900460ff16905087565b60606008600084815260200190815260200160002060008381526020019081526020016000206000018054600181600116156101000203166002900480601f0160208091040260200160405190810160405280929190818152602001828054600181600116156101000203166002900480156113b35780601f10611388576101008083540402835291602001916113b3565b820191906000526020600020905b81548152906001019060200180831161139657829003601f168201915b5050505050905092915050565b60008054906101000a900473ffffffffffffffffffffffffffffffffffffffff1681565b60025481565b60011515600460003373ffffffffffffffffffffffffffffffffffffffff1673ffffffffffffffffffffffffffffffffffffffff16815260200190815260200160002060009054906101000a900460ff1615151461144757600080fd5b6040518060a0016040528082815260200160015481526020016040518060200160405280600081525081526020013373ffffffffffffffffffffffffffffffffffffffff1681526020016000815250600560006001548152602001908152602001600020600082015181600001556020820151816001015560408201518160020190805190602001906114db9291906125fa565b5060608201518160030160006101000a81548173ffffffffffffffffffffffffffffffffffffffff021916908373ffffffffffffffffffffffffffffffffffffffff160217905550608082015181600401559050506005600060015481526020019081526020016000206009600083815260200190815260200160002060003373ffffffffffffffffffffffffffffffffffffffff1673ffffffffffffffffffffffffffffffffffffffff1681526020019081526020016000206000820154816000015560018201548160010155600282018160020190805460018160011615610100020316600290046115d092919061267a565b506003820160009054906101000a900473ffffffffffffffffffffffffffffffffffffffff168160030160006101000a81548173ffffffffffffffffffffffffffffffffffffffff021916908373ffffffffffffffffffffffffffffffffffffffff1602179055506004820154816004015590505060076000828152602001908152602001600020600501600081548092919060010191905055507f6178c977a96772c9c7cdf71096d53b8e8b6b0f9862a88f66e601fd4dae44aa696005600060015481526020019081526020016000206000015460056000600154815260200190815260200160002060010154336040516116ce93929190612f96565b60405180910390a1600180540160018190555050565b60046020528060005260406000206000915054906101000a900460ff1681565b61170c612701565b600a60008473ffffffffffffffffffffffffffffffffffffffff1673ffffffffffffffffffffffffffffffffffffffff16815260200190815260200160002060008381526020019081526020016000206040518060e001604052908160008201548152602001600182018054600181600116156101000203166002900480601f01602080910402602001604051908101604052809291908181526020018280546001816001161561010002031660029004801561180a5780601f106117df5761010080835404028352916020019161180a565b820191906000526020600020905b8154815290600101906020018083116117ed57829003601f168201915b50505050508152602001600282018054600181600116156101000203166002900480601f0160208091040260200160405190810160405280929190818152602001828054600181600116156101000203166002900480156118ac5780601f10611881576101008083540402835291602001916118ac565b820191906000526020600020905b81548152906001019060200180831161188f57829003601f168201915b505050505081526020016003820160009054906101000a900473ffffffffffffffffffffffffffffffffffffffff1673ffffffffffffffffffffffffffffffffffffffff1673ffffffffffffffffffffffffffffffffffffffff16815260200160048201548152602001600582015481526020016006820160009054906101000a900460ff161515151581525050905092915050565b60606006600084815260200190815260200160002060008381526020019081526020016000208054600181600116156101000203166002900480601f0160208091040260200160405190810160405280929190818152602001828054600181600116156101000203166002900480156119fc5780601f106119d1576101008083540402835291602001916119fc565b820191906000526020600020905b8154815290600101906020018083116119df57829003601f168201915b5050505050905092915050565b60606008600084815260200190815260200160002060008381526020019081526020016000206001018054600181600116156101000203166002900480601f016020809104026020016040519081016040528092919081815260200182805460018160011615610100020316600290048015611ac65780601f10611a9b57610100808354040283529160200191611ac6565b820191906000526020600020905b815481529060010190602001808311611aa957829003601f168201915b5050505050905092915050565b6006602052816000526040600020602052806000526040600020600091509150508054600181600116156101000203166002900480601f016020809104026020016040519081016040528092919081815260200182805460018160011615610100020316600290048015611b885780601f10611b5d57610100808354040283529160200191611b88565b820191906000526020600020905b815481529060010190602001808311611b6b57829003601f168201915b505050505081565b611b98612756565b600560006009600086815260200190815260200160002060008573ffffffffffffffffffffffffffffffffffffffff1673ffffffffffffffffffffffffffffffffffffffff1681526020019081526020016000206001015481526020019081526020016000206040518060a00160405290816000820154815260200160018201548152602001600282018054600181600116156101000203166002900480601f016020809104026020016040519081016040528092919081815260200182805460018160011615610100020316600290048015611cb65780601f10611c8b57610100808354040283529160200191611cb6565b820191906000526020600020905b815481529060010190602001808311611c9957829003601f168201915b505050505081526020016003820160009054906101000a900473ffffffffffffffffffffffffffffffffffffffff1673ffffffffffffffffffffffffffffffffffffffff1673ffffffffffffffffffffffffffffffffffffffff168152602001600482015481525050905092915050565b600060086000848152602001908152602001600020600083815260200190815260200160002060030160009054906101000a900473ffffffffffffffffffffffffffffffffffffffff16905092915050565b6040518060a001604052808481526020018381526020018281526020013373ffffffffffffffffffffffffffffffffffffffff1681526020016000815250600360003373ffffffffffffffffffffffffffffffffffffffff1673ffffffffffffffffffffffffffffffffffffffff1681526020019081526020016000206000820151816000019080519060200190611e129291906125fa565b506020820151816001019080519060200190611e2f9291906125fa565b506040820151816002019080519060200190611e4c9291906125fa565b5060608201518160030160006101000a81548173ffffffffffffffffffffffffffffffffffffffff021916908373ffffffffffffffffffffffffffffffffffffffff160217905550608082015181600401559050506001600460003373ffffffffffffffffffffffffffffffffffffffff1673ffffffffffffffffffffffffffffffffffffffff16815260200190815260200160002060006101000a81548160ff0219169083151502179055507f650818a2cdc02e38dec94c8fe55f3250f585e75143a872d7edd65013eaac481283838333604051611f2e9493929190612d6e565b60405180910390a1505050565b600360003373ffffffffffffffffffffffffffffffffffffffff1673ffffffffffffffffffffffffffffffffffffffff1681526020019081526020016000206008600083815260200190815260200160002060006007600085815260200190815260200160002060040154815260200190815260200160002060008201816000019080546001816001161561010002031660029004611fdb92919061267a565b506001820181600101908054600181600116156101000203166002900461200392919061267a565b506002820181600201908054600181600116156101000203166002900461202b92919061267a565b506003820160009054906101000a900473ffffffffffffffffffffffffffffffffffffffff168160030160006101000a81548173ffffffffffffffffffffffffffffffffffffffff021916908373ffffffffffffffffffffffffffffffffffffffff1602179055506004820154816004015590505060076000828152602001908152602001600020600a60003373ffffffffffffffffffffffffffffffffffffffff1673ffffffffffffffffffffffffffffffffffffffff1681526020019081526020016000206000600360003373ffffffffffffffffffffffffffffffffffffffff1673ffffffffffffffffffffffffffffffffffffffff168152602001908152602001600020600401548152602001908152602001600020600082015481600001556001820181600101908054600181600116156101000203166002900461217692919061267a565b506002820181600201908054600181600116156101000203166002900461219e92919061267a565b506003820160009054906101000a900473ffffffffffffffffffffffffffffffffffffffff168160030160006101000a81548173ffffffffffffffffffffffffffffffffffffffff021916908373ffffffffffffffffffffffffffffffffffffffff16021790555060048201548160040155600582015481600501556006820160009054906101000a900460ff168160060160006101000a81548160ff021916908315150217905550905050600360003373ffffffffffffffffffffffffffffffffffffffff1673ffffffffffffffffffffffffffffffffffffffff168152602001908152602001600020600401600081548092919060010191905055507f7c5612eddb18d5a60f738bb03db35af88f9ad608456f32d8f0b61003af06952e60076000838152602001908152602001600020600401546008600084815260200190815260200160002060006007600086815260200190815260200160002060040154815260200190815260200160002060000160405161231f929190612f0c565b60405180910390a1600760008281526020019081526020016000206004016000815480929190600101919050555050565b8060066000848152602001908152602001600020600060056000868152602001908152602001600020600401548152602001908152602001600020908051906020019061239e9291906125fa565b5060056000838152602001908152602001600020600401600081548092919060010191905055505050565b600860205281600052604060002060205280600052604060002060009150915050806000018054600181600116156101000203166002900480601f0160208091040260200160405190810160405280929190818152602001828054600181600116156101000203166002900480156124825780601f1061245757610100808354040283529160200191612482565b820191906000526020600020905b81548152906001019060200180831161246557829003601f168201915b505050505090806001018054600181600116156101000203166002900480601f0160208091040260200160405190810160405280929190818152602001828054600181600116156101000203166002900480156125205780601f106124f557610100808354040283529160200191612520565b820191906000526020600020905b81548152906001019060200180831161250357829003601f168201915b505050505090806002018054600181600116156101000203166002900480601f0160208091040260200160405190810160405280929190818152602001828054600181600116156101000203166002900480156125be5780601f10612593576101008083540402835291602001916125be565b820191906000526020600020905b8154815290600101906020018083116125a157829003601f168201915b5050505050908060030160009054906101000a900473ffffffffffffffffffffffffffffffffffffffff16908060040154905085565b60015481565b828054600181600116156101000203166002900490600052602060002090601f016020900481019282601f1061263b57805160ff1916838001178555612669565b82800160010185558215612669579182015b8281111561266857825182559160200191906001019061264d565b5b509050612676919061279b565b5090565b828054600181600116156101000203166002900490600052602060002090601f016020900481019282601f106126b357805485556126f0565b828001600101855582156126f057600052602060002091601f016020900482015b828111156126ef5782548255916001019190600101906126d4565b5b5090506126fd919061279b565b5090565b6040518060e00160405280600081526020016060815260200160608152602001600073ffffffffffffffffffffffffffffffffffffffff16815260200160008152602001600081526020016000151581525090565b6040518060a00160405280600081526020016000815260200160608152602001600073ffffffffffffffffffffffffffffffffffffffff168152602001600081525090565b5b808211156127b457600081600090555060010161279c565b5090565b6000813590506127c781613193565b92915050565b600082601f8301126127de57600080fd5b81356127f16127ec82613054565b613027565b9150808252602083016020830185838301111561280d57600080fd5b612818838284613140565b50505092915050565b600081359050612830816131aa565b92915050565b60006020828403121561284857600080fd5b6000612856848285016127b8565b91505092915050565b6000806040838503121561287257600080fd5b6000612880858286016127b8565b925050602061289185828601612821565b9150509250929050565b600080604083850312156128ae57600080fd5b600083013567ffffffffffffffff8111156128c857600080fd5b6128d4858286016127cd565b925050602083013567ffffffffffffffff8111156128f157600080fd5b6128fd858286016127cd565b9150509250929050565b60008060006060848603121561291c57600080fd5b600084013567ffffffffffffffff81111561293657600080fd5b612942868287016127cd565b935050602084013567ffffffffffffffff81111561295f57600080fd5b61296b868287016127cd565b925050604084013567ffffffffffffffff81111561298857600080fd5b612994868287016127cd565b9150509250925092565b6000602082840312156129b057600080fd5b60006129be84828501612821565b91505092915050565b600080604083850312156129da57600080fd5b60006129e885828601612821565b92505060206129f9858286016127b8565b9150509250929050565b60008060408385031215612a1657600080fd5b6000612a2485828601612821565b925050602083013567ffffffffffffffff811115612a4157600080fd5b612a4d858286016127cd565b9150509250929050565b60008060408385031215612a6a57600080fd5b6000612a7885828601612821565b9250506020612a8985828601612821565b9150509250929050565b612a9c8161310a565b82525050565b612aab816130c2565b82525050565b612aba816130c2565b82525050565b612ac9816130d4565b82525050565b612ad8816130d4565b82525050565b6000612ae982613095565b612af381856130a0565b9350612b0381856020860161314f565b612b0c81613182565b840191505092915050565b6000612b2282613095565b612b2c81856130b1565b9350612b3c81856020860161314f565b612b4581613182565b840191505092915050565b600081546001811660008114612b6d5760018114612b9357612bd7565b607f6002830416612b7e81876130b1565b955060ff198316865260208601935050612bd7565b60028204612ba181876130b1565b9550612bac85613080565b60005b82811015612bce57815481890152600182019150602081019050612baf565b80880195505050505b505092915050565b600060e083016000830151612bf76000860182612cf8565b5060208301518482036020860152612c0f8282612ade565b91505060408301518482036040860152612c298282612ade565b9150506060830151612c3e6060860182612aa2565b506080830151612c516080860182612cf8565b5060a0830151612c6460a0860182612cf8565b5060c0830151612c7760c0860182612ac0565b508091505092915050565b600060a083016000830151612c9a6000860182612cf8565b506020830151612cad6020860182612cf8565b5060408301518482036040860152612cc58282612ade565b9150506060830151612cda6060860182612aa2565b506080830151612ced6080860182612cf8565b508091505092915050565b612d0181613100565b82525050565b612d1081613100565b82525050565b6000602082019050612d2b6000830184612ab1565b92915050565b6000602082019050612d466000830184612acf565b92915050565b60006020820190508181036000830152612d668184612b17565b905092915050565b60006080820190508181036000830152612d888187612b17565b90508181036020830152612d9c8186612b17565b90508181036040830152612db08185612b17565b9050612dbf6060830184612a93565b95945050505050565b600060a0820190508181036000830152612de28188612b17565b90508181036020830152612df68187612b17565b90508181036040830152612e0a8186612b17565b9050612e196060830185612ab1565b612e266080830184612d07565b9695505050505050565b60006020820190508181036000830152612e4a8184612bdf565b905092915050565b60006020820190508181036000830152612e6c8184612c82565b905092915050565b6000602082019050612e896000830184612d07565b92915050565b600060e082019050612ea4600083018a612d07565b8181036020830152612eb68189612b17565b90508181036040830152612eca8188612b17565b9050612ed96060830187612ab1565b612ee66080830186612d07565b612ef360a0830185612d07565b612f0060c0830184612acf565b98975050505050505050565b6000604082019050612f216000830185612d07565b8181036020830152612f338184612b50565b90509392505050565b6000608082019050612f516000830187612d07565b8181036020830152612f638186612b50565b90508181036040830152612f778185612b50565b90508181036060830152612f8b8184612b50565b905095945050505050565b6000606082019050612fab6000830186612d07565b612fb86020830185612d07565b612fc56040830184612a93565b949350505050565b600060a082019050612fe26000830188612d07565b612fef6020830187612d07565b81810360408301526130018186612b17565b90506130106060830185612ab1565b61301d6080830184612d07565b9695505050505050565b6000604051905081810181811067ffffffffffffffff8211171561304a57600080fd5b8060405250919050565b600067ffffffffffffffff82111561306b57600080fd5b601f19601f8301169050602081019050919050565b60008190508160005260206000209050919050565b600081519050919050565b600082825260208201905092915050565b600082825260208201905092915050565b60006130cd826130e0565b9050919050565b60008115159050919050565b600073ffffffffffffffffffffffffffffffffffffffff82169050919050565b6000819050919050565b60006131158261311c565b9050919050565b60006131278261312e565b9050919050565b6000613139826130e0565b9050919050565b82818337600083830152505050565b60005b8381101561316d578082015181840152602081019050613152565b8381111561317c576000848401525b50505050565b6000601f19601f8301169050919050565b61319c816130c2565b81146131a757600080fd5b50565b6131b381613100565b81146131be57600080fd5b5056fea2646970667358221220741335940b98f279178259a0922d5bc2e6cf09b9fc5d528dbaafa7cd061785d564736f6c63430007000033",
  "immutableReferences": {},
  "source": "pragma solidity >=0.7.0 <0.9.0;\r\npragma experimental ABIEncoderV2;\r\ncontract DSPF {\r\n    //\r\n    address public manager;\r\n    \r\n    //ID\r\n    uint public datasetCnt =0;\r\n    \r\n    //ID\r\n    uint public cooperationCnt =0;\r\n    \r\n    //\r\n    constructor(){\r\n        manager = msg.sender;\r\n    }\r\n    \r\n    //\r\n    struct Mem{\r\n        string orgnizationName;\r\n        string email;\r\n        string phone;\r\n        address addr;\r\n        uint cooCnt;\r\n    }\r\n    \r\n    //\r\n    struct Dataset{\r\n        uint cooperationID;\r\n        uint datasetID;\r\n        string ipfsHash;\r\n        address ownerAddress;\r\n        uint colCnt;\r\n    }\r\n\r\n    //\r\n    struct Cooperation{\r\n        uint cooperationID;\r\n        string target;\r\n        string miningFun;\r\n        address host;\r\n        uint memCnt;\r\n        uint dataCnt;\r\n        bool getResult;\r\n    }  \r\n\r\n    //\r\n    modifier memberOnly{\r\n        require(memberCheck[msg.sender]==true);\r\n        _;\r\n    }\r\n\r\n    //\r\n    modifier managerOnly{\r\n        require(msg.sender==manager);\r\n        _;\r\n    }\r\n    \r\n    //\r\n    mapping (address => Mem) public members;\r\n    \r\n    //\r\n    mapping (address => bool) public memberCheck;\r\n\r\n    //ID\r\n    mapping (uint => Dataset) public datasets;\r\n\r\n    //\r\n    mapping (uint =>mapping (uint => string)) public datasetsCol;\r\n    \r\n    //ID\r\n    mapping (uint => Cooperation) public cooperations;\r\n\r\n    //\r\n    mapping (uint =>mapping (uint => Mem)) public cooperationMems;\r\n    \r\n    //\r\n    mapping (uint =>mapping (address => Dataset)) public cooperationDatas;\r\n\r\n    //\r\n    mapping (address => mapping (uint => Cooperation)) public memberCooperations;\r\n\r\n    event createMemEvent(\r\n        string orgnizationName,\r\n        string email,\r\n        string phone,\r\n        address addr\r\n    );\r\n    \r\n    event setDatesetEvent(\r\n        uint _cooperationID,\r\n        uint datasetID,\r\n        address ownerAddress\r\n    );\r\n    \r\n    event createCooperationEvent(\r\n        uint cooperationID,\r\n        string target,\r\n        string miningFun,\r\n        string hostName\r\n    );\r\n\r\n    event addMem(\r\n        uint memCnt,\r\n        string memName\r\n    );\r\n\r\n    event addData(\r\n        uint datasetID,\r\n        string col\r\n    );\r\n\r\n    event getData(\r\n        string col\r\n    );\r\n\r\n    event setData(\r\n        string col\r\n    );\r\n    \r\n    //\r\n    function createMember(string memory _orgnizationName, string memory _email, string memory _phone)public{\r\n        //\r\n        members[msg.sender] = Mem({\r\n            orgnizationName: _orgnizationName,\r\n            email: _email,\r\n            phone:_phone,\r\n            addr: msg.sender,\r\n            cooCnt:0\r\n        });\r\n\r\n        //\r\n        memberCheck[msg.sender]=true;\r\n        \r\n        //log\r\n        emit createMemEvent(\r\n            _orgnizationName,\r\n            _email,\r\n            _phone,\r\n            msg.sender\r\n        );\r\n    }\r\n      \r\n    //\r\n    function setDataset(uint _cooperationID) public memberOnly{\r\n        datasets[datasetCnt]=Dataset({\r\n            cooperationID:_cooperationID,\r\n            datasetID:datasetCnt,\r\n            ipfsHash:'',\r\n            ownerAddress:msg.sender,\r\n            colCnt:0\r\n        });\r\n        \r\n\r\n        cooperationDatas[_cooperationID][msg.sender]=datasets[datasetCnt];\r\n        cooperations[_cooperationID].dataCnt++;\r\n        emit setDatesetEvent(\r\n            datasets[datasetCnt].cooperationID,\r\n            datasets[datasetCnt].datasetID,\r\n            msg.sender\r\n        );\r\n        datasetCnt=datasetCnt+1;\r\n    }\r\n\r\n    function getColumn(uint _datasetID,uint _dataIdx) public view returns(string memory){\r\n        return datasetsCol[_datasetID][_dataIdx];\r\n    }\r\n\r\n    function addColumn(uint _datasetID,string memory _col) public {\r\n        datasetsCol[_datasetID][datasets[_datasetID].colCnt]=_col;\r\n        datasets[_datasetID].colCnt++;\r\n    }\r\n    \r\n    \r\n    function createCooperation( string memory _target,string memory _miningFun) public memberOnly{\r\n        cooperations[cooperationCnt] = Cooperation({\r\n            cooperationID:cooperationCnt,\r\n            target:_target,\r\n            host:msg.sender,\r\n            memCnt : 0,\r\n            dataCnt : 0,\r\n            miningFun : _miningFun,\r\n            getResult:false\r\n        });\r\n        memberCooperations[msg.sender][members[msg.sender].cooCnt]=cooperations[cooperationCnt];\r\n        members[msg.sender].cooCnt++;\r\n        cooperationMems[cooperationCnt][0] = members[msg.sender];\r\n        cooperations[cooperationCnt].memCnt++;\r\n        \r\n        emit createCooperationEvent(\r\n            cooperations[cooperationCnt].cooperationID,\r\n            cooperations[cooperationCnt].target,\r\n            cooperations[cooperationCnt].miningFun,\r\n            cooperationMems[cooperationCnt][0].orgnizationName\r\n        );\r\n        cooperationCnt=cooperationCnt+1;\r\n    }\r\n\r\n    function getCooMemName(uint _cooperationID,uint _memIdx) public view returns(string memory){\r\n        return cooperationMems[_cooperationID][_memIdx].orgnizationName;\r\n    }\r\n    \r\n    function getCooMemPhone(uint _cooperationID,uint _memIdx) public view returns(string memory){\r\n        return cooperationMems[_cooperationID][_memIdx].phone;\r\n    }\r\n\r\n    function getCooMemEmail(uint _cooperationID,uint _memIdx) public view returns(string memory){\r\n        return cooperationMems[_cooperationID][_memIdx].email;\r\n    }\r\n\r\n    function getCooMemAddr(uint _cooperationID,uint _memIdx) public view returns(address){\r\n        return cooperationMems[_cooperationID][_memIdx].addr;\r\n    }\r\n\r\n    function addCooperationMem(uint _cooperationID) public {\r\n        cooperationMems[_cooperationID][cooperations[_cooperationID].memCnt]=members[msg.sender];\r\n        memberCooperations[msg.sender][members[msg.sender].cooCnt]=cooperations[_cooperationID];\r\n        members[msg.sender].cooCnt++;\r\n        emit addMem(\r\n            cooperations[_cooperationID].memCnt,\r\n            cooperationMems[_cooperationID][cooperations[_cooperationID].memCnt].orgnizationName\r\n        );\r\n        cooperations[_cooperationID].memCnt++;\r\n    }\r\n\r\n    function getDataset(uint _cooperationID,address owner) public view returns(Dataset memory){\r\n        return datasets[cooperationDatas[_cooperationID][owner].datasetID];\r\n    }\r\n\r\n    function getCooperation(address owner,uint idx) public view returns(Cooperation memory){\r\n        return memberCooperations[owner][idx];\r\n    }\r\n    \r\n}\r\n\r\n",
  "sourcePath": "C:\\Users\\YunChieh\\DataSharePlatform\\src\\contracts\\DSPF.sol",
  "compiler": {
    "name": "solc",
    "version": "0.7.0+commit.9e61f92b.Emscripten.clang"
  },
  "schemaVersion": "3.4.3",
  "updatedAt": "2022-01-04T09:18:29.733Z",
  "devdoc": {
    "kind": "dev",
    "methods": {},
    "version": 1
  },
  "userdoc": {
    "kind": "user",
    "methods": {},
    "version": 1
  }
}