{
  "contractName": "DSPF",
  "abi": [
    {
      "inputs": [],
      "stateMutability": "nonpayable",
      "type": "constructor"
    },
    {
      "anonymous": false,
      "inputs": [
        {
          "indexed": false,
          "internalType": "uint256",
          "name": "memCnt",
          "type": "uint256"
        },
        {
          "indexed": false,
          "internalType": "string",
          "name": "memName",
          "type": "string"
        }
      ],
      "name": "addMem",
      "type": "event"
    },
    {
      "anonymous": false,
      "inputs": [
        {
          "indexed": false,
          "internalType": "uint256",
          "name": "cooperationID",
          "type": "uint256"
        },
        {
          "indexed": false,
          "internalType": "string",
          "name": "target",
          "type": "string"
        },
        {
          "indexed": false,
          "internalType": "address",
          "name": "ownerAddress",
          "type": "address"
        },
        {
          "indexed": false,
          "internalType": "string",
          "name": "hostName",
          "type": "string"
        }
      ],
      "name": "createCooperationEvent",
      "type": "event"
    },
    {
      "anonymous": false,
      "inputs": [
        {
          "indexed": false,
          "internalType": "string",
          "name": "orgnizationName",
          "type": "string"
        },
        {
          "indexed": false,
          "internalType": "string",
          "name": "email",
          "type": "string"
        },
        {
          "indexed": false,
          "internalType": "string",
          "name": "phone",
          "type": "string"
        },
        {
          "indexed": false,
          "internalType": "address",
          "name": "addr",
          "type": "address"
        }
      ],
      "name": "createMemEvent",
      "type": "event"
    },
    {
      "anonymous": false,
      "inputs": [
        {
          "indexed": false,
          "internalType": "uint256",
          "name": "_cooperationID",
          "type": "uint256"
        },
        {
          "indexed": false,
          "internalType": "uint256",
          "name": "datasetID",
          "type": "uint256"
        },
        {
          "indexed": false,
          "internalType": "string",
          "name": "ipfsHash",
          "type": "string"
        },
        {
          "indexed": false,
          "internalType": "address",
          "name": "ownerAddress",
          "type": "address"
        }
      ],
      "name": "uploaDatesetEvent",
      "type": "event"
    },
    {
      "anonymous": false,
      "inputs": [
        {
          "indexed": false,
          "internalType": "uint256",
          "name": "resultID",
          "type": "uint256"
        },
        {
          "indexed": false,
          "internalType": "uint256",
          "name": "cooperationID",
          "type": "uint256"
        },
        {
          "indexed": false,
          "internalType": "string",
          "name": "ipfsHashResult",
          "type": "string"
        }
      ],
      "name": "uploadResEvent",
      "type": "event"
    },
    {
      "inputs": [
        {
          "internalType": "uint256",
          "name": "",
          "type": "uint256"
        },
        {
          "internalType": "uint256",
          "name": "",
          "type": "uint256"
        }
      ],
      "name": "colByDataset",
      "outputs": [
        {
          "internalType": "string",
          "name": "",
          "type": "string"
        }
      ],
      "stateMutability": "view",
      "type": "function",
      "constant": true
    },
    {
      "inputs": [],
      "name": "cooperationCnt",
      "outputs": [
        {
          "internalType": "uint256",
          "name": "",
          "type": "uint256"
        }
      ],
      "stateMutability": "view",
      "type": "function",
      "constant": true
    },
    {
      "inputs": [
        {
          "internalType": "uint256",
          "name": "",
          "type": "uint256"
        }
      ],
      "name": "cooperations",
      "outputs": [
        {
          "internalType": "uint256",
          "name": "cooperationID",
          "type": "uint256"
        },
        {
          "internalType": "string",
          "name": "target",
          "type": "string"
        },
        {
          "internalType": "string",
          "name": "resultDataset",
          "type": "string"
        },
        {
          "internalType": "address",
          "name": "host",
          "type": "address"
        },
        {
          "internalType": "uint256",
          "name": "memCnt",
          "type": "uint256"
        }
      ],
      "stateMutability": "view",
      "type": "function",
      "constant": true
    },
    {
      "inputs": [],
      "name": "datasetCnt",
      "outputs": [
        {
          "internalType": "uint256",
          "name": "",
          "type": "uint256"
        }
      ],
      "stateMutability": "view",
      "type": "function",
      "constant": true
    },
    {
      "inputs": [
        {
          "internalType": "uint256",
          "name": "",
          "type": "uint256"
        }
      ],
      "name": "datasets",
      "outputs": [
        {
          "internalType": "uint256",
          "name": "cooperationID",
          "type": "uint256"
        },
        {
          "internalType": "uint256",
          "name": "datasetID",
          "type": "uint256"
        },
        {
          "internalType": "uint256",
          "name": "privacy",
          "type": "uint256"
        },
        {
          "internalType": "string",
          "name": "ipfsHash",
          "type": "string"
        },
        {
          "internalType": "bool",
          "name": "getResult",
          "type": "bool"
        },
        {
          "internalType": "address",
          "name": "ownerAddress",
          "type": "address"
        }
      ],
      "stateMutability": "view",
      "type": "function",
      "constant": true
    },
    {
      "inputs": [],
      "name": "manager",
      "outputs": [
        {
          "internalType": "address",
          "name": "",
          "type": "address"
        }
      ],
      "stateMutability": "view",
      "type": "function",
      "constant": true
    },
    {
      "inputs": [
        {
          "internalType": "address",
          "name": "",
          "type": "address"
        }
      ],
      "name": "memberCheck",
      "outputs": [
        {
          "internalType": "bool",
          "name": "",
          "type": "bool"
        }
      ],
      "stateMutability": "view",
      "type": "function",
      "constant": true
    },
    {
      "inputs": [
        {
          "internalType": "address",
          "name": "",
          "type": "address"
        }
      ],
      "name": "members",
      "outputs": [
        {
          "internalType": "string",
          "name": "orgnizationName",
          "type": "string"
        },
        {
          "internalType": "string",
          "name": "email",
          "type": "string"
        },
        {
          "internalType": "string",
          "name": "phone",
          "type": "string"
        },
        {
          "internalType": "address",
          "name": "addr",
          "type": "address"
        }
      ],
      "stateMutability": "view",
      "type": "function",
      "constant": true
    },
    {
      "inputs": [
        {
          "internalType": "uint256",
          "name": "",
          "type": "uint256"
        }
      ],
      "name": "results",
      "outputs": [
        {
          "internalType": "uint256",
          "name": "resultID",
          "type": "uint256"
        },
        {
          "internalType": "uint256",
          "name": "cooperationID",
          "type": "uint256"
        },
        {
          "internalType": "string",
          "name": "ipfsHashResult",
          "type": "string"
        }
      ],
      "stateMutability": "view",
      "type": "function",
      "constant": true
    },
    {
      "inputs": [],
      "name": "resultsetCnt",
      "outputs": [
        {
          "internalType": "uint256",
          "name": "",
          "type": "uint256"
        }
      ],
      "stateMutability": "view",
      "type": "function",
      "constant": true
    },
    {
      "inputs": [
        {
          "internalType": "string",
          "name": "_orgnizationName",
          "type": "string"
        },
        {
          "internalType": "string",
          "name": "_email",
          "type": "string"
        },
        {
          "internalType": "string",
          "name": "_phone",
          "type": "string"
        }
      ],
      "name": "createMember",
      "outputs": [],
      "stateMutability": "nonpayable",
      "type": "function"
    },
    {
      "inputs": [
        {
          "internalType": "string",
          "name": "_ipfsHash",
          "type": "string"
        },
        {
          "internalType": "uint256",
          "name": "_privacy",
          "type": "uint256"
        },
        {
          "internalType": "uint256",
          "name": "_cooperationID",
          "type": "uint256"
        }
      ],
      "name": "uploadDataset",
      "outputs": [],
      "stateMutability": "nonpayable",
      "type": "function"
    },
    {
      "inputs": [
        {
          "internalType": "uint256",
          "name": "_datasetID",
          "type": "uint256"
        },
        {
          "internalType": "string",
          "name": "_col",
          "type": "string"
        }
      ],
      "name": "addColumn",
      "outputs": [],
      "stateMutability": "nonpayable",
      "type": "function"
    },
    {
      "inputs": [
        {
          "internalType": "string",
          "name": "_target",
          "type": "string"
        }
      ],
      "name": "createCooperation",
      "outputs": [],
      "stateMutability": "nonpayable",
      "type": "function"
    },
    {
      "inputs": [
        {
          "internalType": "uint256",
          "name": "_cooperationID",
          "type": "uint256"
        },
        {
          "internalType": "uint256",
          "name": "_memIdx",
          "type": "uint256"
        }
      ],
      "name": "getCooMemName",
      "outputs": [
        {
          "internalType": "string",
          "name": "",
          "type": "string"
        }
      ],
      "stateMutability": "view",
      "type": "function",
      "constant": true
    },
    {
      "inputs": [
        {
          "internalType": "uint256",
          "name": "_cooperationID",
          "type": "uint256"
        },
        {
          "internalType": "uint256",
          "name": "_memIdx",
          "type": "uint256"
        }
      ],
      "name": "getCooMemPhone",
      "outputs": [
        {
          "internalType": "string",
          "name": "",
          "type": "string"
        }
      ],
      "stateMutability": "view",
      "type": "function",
      "constant": true
    },
    {
      "inputs": [
        {
          "internalType": "uint256",
          "name": "_cooperationID",
          "type": "uint256"
        },
        {
          "internalType": "uint256",
          "name": "_memIdx",
          "type": "uint256"
        }
      ],
      "name": "getCooMemEmail",
      "outputs": [
        {
          "internalType": "string",
          "name": "",
          "type": "string"
        }
      ],
      "stateMutability": "view",
      "type": "function",
      "constant": true
    },
    {
      "inputs": [
        {
          "internalType": "uint256",
          "name": "_cooperationID",
          "type": "uint256"
        },
        {
          "internalType": "uint256",
          "name": "_memIdx",
          "type": "uint256"
        }
      ],
      "name": "getCooMemAddr",
      "outputs": [
        {
          "internalType": "address",
          "name": "",
          "type": "address"
        }
      ],
      "stateMutability": "view",
      "type": "function",
      "constant": true
    },
    {
      "inputs": [
        {
          "internalType": "uint256",
          "name": "_cooperationID",
          "type": "uint256"
        }
      ],
      "name": "addCooperationMem",
      "outputs": [],
      "stateMutability": "nonpayable",
      "type": "function"
    },
    {
      "inputs": [
        {
          "internalType": "uint256",
          "name": "_cooperationID",
          "type": "uint256"
        },
        {
          "internalType": "string",
          "name": "_ipfsHash",
          "type": "string"
        }
      ],
      "name": "uploadResultFile",
      "outputs": [],
      "stateMutability": "nonpayable",
      "type": "function"
    }
  ],
  "bytecode": "0x608060405260006001556000600255600060035534801561001f57600080fd5b50336000806101000a81548173ffffffffffffffffffffffffffffffffffffffff021916908373ffffffffffffffffffffffffffffffffffffffff1602179055506121788061006f6000396000f3fe608060405234801561001057600080fd5b506004361061012c5760003560e01c806372f8b60b116100ad578063c6bdf0dd11610071578063c6bdf0dd146103b1578063d1cc8fcc146103cd578063df741b15146103e9578063ffb6212a14610405578063fff9da7e146104235761012c565b806372f8b60b146102d55780637497796c146102f15780638b9a939d14610321578063a7a0793514610351578063bd9b56c0146103815761012c565b8063341bbab2116100f4578063341bbab21461021757806346dc315e1461024b578063481c6a751461027b5780634b3996401461029957806361805f44146102b75761012c565b806308ae4b0c1461013157806308b1db261461016457806318a5d6d7146101945780631b0c27da146101b05780631cff85e1146101e2575b600080fd5b61014b60048036038101906101469190611997565b61043f565b60405161015b9493929190611d14565b60405180910390f35b61017e60048036038101906101799190611b7c565b610657565b60405161018b9190611cf2565b60405180910390f35b6101ae60048036038101906101a99190611b28565b61072a565b005b6101ca60048036038101906101c59190611aff565b610876565b6040516101d993929190611ec7565b60405180910390f35b6101fc60048036038101906101f79190611aff565b610938565b60405161020e96959493929190611f51565b60405180910390f35b610231600480360381019061022c9190611aff565b610a39565b604051610242959493929190611de3565b60405180910390f35b61026560048036038101906102609190611b7c565b610bbf565b6040516102729190611cf2565b60405180910390f35b610283610c92565b6040516102909190611cbc565b60405180910390f35b6102a1610cb6565b6040516102ae9190611dc8565b60405180910390f35b6102bf610cbc565b6040516102cc9190611dc8565b60405180910390f35b6102ef60048036038101906102ea9190611a98565b610cc2565b005b61030b60048036038101906103069190611997565b610e87565b6040516103189190611cd7565b60405180910390f35b61033b60048036038101906103369190611b7c565b610ea7565b6040516103489190611cf2565b60405180910390f35b61036b60048036038101906103669190611b7c565b610f6d565b6040516103789190611cf2565b60405180910390f35b61039b60048036038101906103969190611b7c565b611040565b6040516103a89190611cbc565b60405180910390f35b6103cb60048036038101906103c69190611a01565b61109a565b005b6103e760048036038101906103e29190611aff565b611257565b005b61040360048036038101906103fe9190611b28565b61146c565b005b61040d6114bd565b60405161041a9190611dc8565b60405180910390f35b61043d600480360381019061043891906119c0565b6114c3565b005b6004602052806000526040600020600091509050806000018054600181600116156101000203166002900480601f0160208091040260200160405190810160405280929190818152602001828054600181600116156101000203166002900480156104eb5780601f106104c0576101008083540402835291602001916104eb565b820191906000526020600020905b8154815290600101906020018083116104ce57829003601f168201915b505050505090806001018054600181600116156101000203166002900480601f0160208091040260200160405190810160405280929190818152602001828054600181600116156101000203166002900480156105895780601f1061055e57610100808354040283529160200191610589565b820191906000526020600020905b81548152906001019060200180831161056c57829003601f168201915b505050505090806002018054600181600116156101000203166002900480601f0160208091040260200160405190810160405280929190818152602001828054600181600116156101000203166002900480156106275780601f106105fc57610100808354040283529160200191610627565b820191906000526020600020905b81548152906001019060200180831161060a57829003601f168201915b5050505050908060030160009054906101000a900473ffffffffffffffffffffffffffffffffffffffff16905084565b606060006008600085815260200190815260200160002090508060050160008481526020019081526020016000206002018054600181600116156101000203166002900480601f01602080910402602001604051908101604052809291908181526020018280546001816001161561010002031660029004801561071c5780601f106106f15761010080835404028352916020019161071c565b820191906000526020600020905b8154815290600101906020018083116106ff57829003601f168201915b505050505091505092915050565b60008054906101000a900473ffffffffffffffffffffffffffffffffffffffff1673ffffffffffffffffffffffffffffffffffffffff163373ffffffffffffffffffffffffffffffffffffffff161461078257600080fd5b61078a611748565b6003600081548092919060010191905055506040518060600160405280600354815260200184815260200183815250905080600760008360000151815260200190815260200160002060008201518160000155602082015181600101556040820151816002019080519060200190610803929190611769565b5090505081600860008581526020019081526020016000206002019080519060200190610831929190611769565b507fe61d3e67404127cc2ac8d90b9b91880c3d4726c52e771622819eaf753df026558160000151848460405161086993929190611ec7565b60405180910390a1505050565b6007602052806000526040600020600091509050806000015490806001015490806002018054600181600116156101000203166002900480601f01602080910402602001604051908101604052809291908181526020018280546001816001161561010002031660029004801561092e5780601f106109035761010080835404028352916020019161092e565b820191906000526020600020905b81548152906001019060200180831161091157829003601f168201915b5050505050905083565b6006602052806000526040600020600091509050806000015490806001015490806002015490806003018054600181600116156101000203166002900480601f0160208091040260200160405190810160405280929190818152602001828054600181600116156101000203166002900480156109f65780601f106109cb576101008083540402835291602001916109f6565b820191906000526020600020905b8154815290600101906020018083116109d957829003601f168201915b5050505050908060040160009054906101000a900460ff16908060040160019054906101000a900473ffffffffffffffffffffffffffffffffffffffff16905086565b6008602052806000526040600020600091509050806000015490806001018054600181600116156101000203166002900480601f016020809104026020016040519081016040528092919081815260200182805460018160011615610100020316600290048015610aeb5780601f10610ac057610100808354040283529160200191610aeb565b820191906000526020600020905b815481529060010190602001808311610ace57829003601f168201915b505050505090806002018054600181600116156101000203166002900480601f016020809104026020016040519081016040528092919081815260200182805460018160011615610100020316600290048015610b895780601f10610b5e57610100808354040283529160200191610b89565b820191906000526020600020905b815481529060010190602001808311610b6c57829003601f168201915b5050505050908060030160009054906101000a900473ffffffffffffffffffffffffffffffffffffffff16908060040154905085565b606060006008600085815260200190815260200160002090508060050160008481526020019081526020016000206000018054600181600116156101000203166002900480601f016020809104026020016040519081016040528092919081815260200182805460018160011615610100020316600290048015610c845780601f10610c5957610100808354040283529160200191610c84565b820191906000526020600020905b815481529060010190602001808311610c6757829003601f168201915b505050505091505092915050565b60008054906101000a900473ffffffffffffffffffffffffffffffffffffffff1681565b60035481565b60025481565b60011515600560003373ffffffffffffffffffffffffffffffffffffffff1673ffffffffffffffffffffffffffffffffffffffff16815260200190815260200160002060009054906101000a900460ff16151514610d1f57600080fd5b610d276117e9565b6001600081548092919060010191905055506040518060c0016040528083815260200160015481526020018481526020018581526020016000151581526020013373ffffffffffffffffffffffffffffffffffffffff1681525090508060066000836020015181526020019081526020016000206000820151816000015560208201518160010155604082015181600201556060820151816003019080519060200190610dd5929190611769565b5060808201518160040160006101000a81548160ff02191690831515021790555060a08201518160040160016101000a81548173ffffffffffffffffffffffffffffffffffffffff021916908373ffffffffffffffffffffffffffffffffffffffff1602179055509050507f8eb3b3f4d8b85e0dfd24af04acb419fd977fe4a26ce0f4ae2a95fb901f4b17a78282602001518633604051610e799493929190611f05565b60405180910390a150505050565b60056020528060005260406000206000915054906101000a900460ff1681565b60096020528160005260406000208181548110610ec057fe5b90600052602060002001600091509150508054600181600116156101000203166002900480601f016020809104026020016040519081016040528092919081815260200182805460018160011615610100020316600290048015610f655780601f10610f3a57610100808354040283529160200191610f65565b820191906000526020600020905b815481529060010190602001808311610f4857829003601f168201915b505050505081565b606060006008600085815260200190815260200160002090508060050160008481526020019081526020016000206001018054600181600116156101000203166002900480601f0160208091040260200160405190810160405280929190818152602001828054600181600116156101000203166002900480156110325780601f1061100757610100808354040283529160200191611032565b820191906000526020600020905b81548152906001019060200180831161101557829003601f168201915b505050505091505092915050565b60008060086000858152602001908152602001600020905080600501600084815260200190815260200160002060030160009054906101000a900473ffffffffffffffffffffffffffffffffffffffff1691505092915050565b6110a2611837565b60405180608001604052808581526020018481526020018381526020013373ffffffffffffffffffffffffffffffffffffffff16815250905080600460003373ffffffffffffffffffffffffffffffffffffffff1673ffffffffffffffffffffffffffffffffffffffff1681526020019081526020016000206000820151816000019080519060200190611137929190611769565b506020820151816001019080519060200190611154929190611769565b506040820151816002019080519060200190611171929190611769565b5060608201518160030160006101000a81548173ffffffffffffffffffffffffffffffffffffffff021916908373ffffffffffffffffffffffffffffffffffffffff1602179055509050506001600560003373ffffffffffffffffffffffffffffffffffffffff1673ffffffffffffffffffffffffffffffffffffffff16815260200190815260200160002060006101000a81548160ff0219169083151502179055507f650818a2cdc02e38dec94c8fe55f3250f585e75143a872d7edd65013eaac4812848484336040516112499493929190611d6e565b60405180910390a150505050565b6008600082815260200190815260200160002060040160008154809291906001019190505550600460003373ffffffffffffffffffffffffffffffffffffffff1673ffffffffffffffffffffffffffffffffffffffff1681526020019081526020016000206008600083815260200190815260200160002060050160006008600085815260200190815260200160002060040154815260200190815260200160002060008201816000019080546001816001161561010002031660029004611320929190611875565b5060018201816001019080546001816001161561010002031660029004611348929190611875565b5060028201816002019080546001816001161561010002031660029004611370929190611875565b506003820160009054906101000a900473ffffffffffffffffffffffffffffffffffffffff168160030160006101000a81548173ffffffffffffffffffffffffffffffffffffffff021916908373ffffffffffffffffffffffffffffffffffffffff1602179055509050507f7c5612eddb18d5a60f738bb03db35af88f9ad608456f32d8f0b61003af06952e600860008381526020019081526020016000206004015460086000848152602001908152602001600020600501600060086000868152602001908152602001600020600401548152602001908152602001600020600001604051611461929190611e44565b60405180910390a150565b60096000838152602001908152602001600020819080600181540180825580915050600190039060005260206000200160009091909190915090805190602001906114b8929190611769565b505050565b60015481565b60026000815480929190600101919050555060006008600060025481526020019081526020016000209050600254816000018190555081816001019080519060200190611511929190611769565b5060405180602001604052806000815250816002019080519060200190611539929190611769565b50338160030160006101000a81548173ffffffffffffffffffffffffffffffffffffffff021916908373ffffffffffffffffffffffffffffffffffffffff16021790555060008160040181905550600460003373ffffffffffffffffffffffffffffffffffffffff1673ffffffffffffffffffffffffffffffffffffffff1681526020019081526020016000208160050160008360040154815260200190815260200160002060008201816000019080546001816001161561010002031660029004611606929190611875565b506001820181600101908054600181600116156101000203166002900461162e929190611875565b5060028201816002019080546001816001161561010002031660029004611656929190611875565b506003820160009054906101000a900473ffffffffffffffffffffffffffffffffffffffff168160030160006101000a81548173ffffffffffffffffffffffffffffffffffffffff021916908373ffffffffffffffffffffffffffffffffffffffff1602179055509050507f9cbf6f4155fa95a0a0d082ba9ab6c1fc62aa7bd444ee6e019bad3117875426d88160000154826001018360030160009054906101000a900473ffffffffffffffffffffffffffffffffffffffff168460050160008660040154815260200190815260200160002060000160405161173c9493929190611e74565b60405180910390a15050565b60405180606001604052806000815260200160008152602001606081525090565b828054600181600116156101000203166002900490600052602060002090601f016020900481019282601f106117aa57805160ff19168380011785556117d8565b828001600101855582156117d8579182015b828111156117d75782518255916020019190600101906117bc565b5b5090506117e591906118fc565b5090565b6040518060c0016040528060008152602001600081526020016000815260200160608152602001600015158152602001600073ffffffffffffffffffffffffffffffffffffffff1681525090565b6040518060800160405280606081526020016060815260200160608152602001600073ffffffffffffffffffffffffffffffffffffffff1681525090565b828054600181600116156101000203166002900490600052602060002090601f016020900481019282601f106118ae57805485556118eb565b828001600101855582156118eb57600052602060002091601f016020900482015b828111156118ea5782548255916001019190600101906118cf565b5b5090506118f891906118fc565b5090565b5b808211156119155760008160009055506001016118fd565b5090565b60008135905061192881612114565b92915050565b600082601f83011261193f57600080fd5b813561195261194d82611fe6565b611fb9565b9150808252602083016020830185838301111561196e57600080fd5b6119798382846120c1565b50505092915050565b6000813590506119918161212b565b92915050565b6000602082840312156119a957600080fd5b60006119b784828501611919565b91505092915050565b6000602082840312156119d257600080fd5b600082013567ffffffffffffffff8111156119ec57600080fd5b6119f88482850161192e565b91505092915050565b600080600060608486031215611a1657600080fd5b600084013567ffffffffffffffff811115611a3057600080fd5b611a3c8682870161192e565b935050602084013567ffffffffffffffff811115611a5957600080fd5b611a658682870161192e565b925050604084013567ffffffffffffffff811115611a8257600080fd5b611a8e8682870161192e565b9150509250925092565b600080600060608486031215611aad57600080fd5b600084013567ffffffffffffffff811115611ac757600080fd5b611ad38682870161192e565b9350506020611ae486828701611982565b9250506040611af586828701611982565b9150509250925092565b600060208284031215611b1157600080fd5b6000611b1f84828501611982565b91505092915050565b60008060408385031215611b3b57600080fd5b6000611b4985828601611982565b925050602083013567ffffffffffffffff811115611b6657600080fd5b611b728582860161192e565b9150509250929050565b60008060408385031215611b8f57600080fd5b6000611b9d85828601611982565b9250506020611bae85828601611982565b9150509250929050565b611bc18161208b565b82525050565b611bd081612043565b82525050565b611bdf81612055565b82525050565b6000611bf082612027565b611bfa8185612032565b9350611c0a8185602086016120d0565b611c1381612103565b840191505092915050565b600081546001811660008114611c3b5760018114611c6157611ca5565b607f6002830416611c4c8187612032565b955060ff198316865260208601935050611ca5565b60028204611c6f8187612032565b9550611c7a85612012565b60005b82811015611c9c57815481890152600182019150602081019050611c7d565b80880195505050505b505092915050565b611cb681612081565b82525050565b6000602082019050611cd16000830184611bc7565b92915050565b6000602082019050611cec6000830184611bd6565b92915050565b60006020820190508181036000830152611d0c8184611be5565b905092915050565b60006080820190508181036000830152611d2e8187611be5565b90508181036020830152611d428186611be5565b90508181036040830152611d568185611be5565b9050611d656060830184611bc7565b95945050505050565b60006080820190508181036000830152611d888187611be5565b90508181036020830152611d9c8186611be5565b90508181036040830152611db08185611be5565b9050611dbf6060830184611bb8565b95945050505050565b6000602082019050611ddd6000830184611cad565b92915050565b600060a082019050611df86000830188611cad565b8181036020830152611e0a8187611be5565b90508181036040830152611e1e8186611be5565b9050611e2d6060830185611bc7565b611e3a6080830184611cad565b9695505050505050565b6000604082019050611e596000830185611cad565b8181036020830152611e6b8184611c1e565b90509392505050565b6000608082019050611e896000830187611cad565b8181036020830152611e9b8186611c1e565b9050611eaa6040830185611bc7565b8181036060830152611ebc8184611c1e565b905095945050505050565b6000606082019050611edc6000830186611cad565b611ee96020830185611cad565b8181036040830152611efb8184611be5565b9050949350505050565b6000608082019050611f1a6000830187611cad565b611f276020830186611cad565b8181036040830152611f398185611be5565b9050611f486060830184611bb8565b95945050505050565b600060c082019050611f666000830189611cad565b611f736020830188611cad565b611f806040830187611cad565b8181036060830152611f928186611be5565b9050611fa16080830185611bd6565b611fae60a0830184611bc7565b979650505050505050565b6000604051905081810181811067ffffffffffffffff82111715611fdc57600080fd5b8060405250919050565b600067ffffffffffffffff821115611ffd57600080fd5b601f19601f8301169050602081019050919050565b60008190508160005260206000209050919050565b600081519050919050565b600082825260208201905092915050565b600061204e82612061565b9050919050565b60008115159050919050565b600073ffffffffffffffffffffffffffffffffffffffff82169050919050565b6000819050919050565b60006120968261209d565b9050919050565b60006120a8826120af565b9050919050565b60006120ba82612061565b9050919050565b82818337600083830152505050565b60005b838110156120ee5780820151818401526020810190506120d3565b838111156120fd576000848401525b50505050565b6000601f19601f8301169050919050565b61211d81612043565b811461212857600080fd5b50565b61213481612081565b811461213f57600080fd5b5056fea2646970667358221220bcbd8f53fe1469e67eeb031f8eb679231ce5418e32f525e2a5c9a1085714161a64736f6c63430007000033",
  "immutableReferences": {},
  "source": "pragma solidity >=0.7.0 <0.9.0;\r\npragma experimental ABIEncoderV2;\r\ncontract DSPF {\r\n    //\r\n    address public manager;\r\n    \r\n    //ID\r\n    uint public datasetCnt =0;\r\n    \r\n    //ID\r\n    uint public cooperationCnt =0;\r\n    \r\n    //ID\r\n    uint public resultsetCnt =0;\r\n    \r\n    //\r\n    constructor(){\r\n        manager = msg.sender;\r\n    }\r\n    \r\n    //\r\n    struct Mem{\r\n        string orgnizationName;\r\n        string email;\r\n        string phone;\r\n        address addr;\r\n    }\r\n    \r\n    //\r\n    struct Dataset{\r\n        uint cooperationID;\r\n        uint datasetID;\r\n        uint privacy;\r\n        string ipfsHash;\r\n        bool getResult;\r\n        address ownerAddress;\r\n    }\r\n\r\n    //\r\n    struct Cooperation{\r\n        uint cooperationID;\r\n        string target;\r\n        string resultDataset;\r\n        address host;\r\n        uint memCnt;\r\n        mapping(uint => Mem) mems;\r\n    }\r\n\r\n    \r\n    struct ResultDataset{\r\n        uint resultID;\r\n        uint cooperationID;\r\n        string ipfsHashResult;\r\n    }\r\n    \r\n\r\n    //\r\n    modifier memberOnly{\r\n        require(memberCheck[msg.sender]==true);\r\n        _;\r\n    }\r\n\r\n    //\r\n    modifier managerOnly{\r\n        require(msg.sender==manager);\r\n        _;\r\n    }\r\n    \r\n    //map\r\n    mapping (address => Mem) public members;\r\n    \r\n    //\r\n    mapping (address => bool) public memberCheck;\r\n\r\n    //ID\r\n    mapping (uint => Dataset) public datasets;\r\n\r\n\r\n    mapping (uint => ResultDataset) public results;\r\n    \r\n    \r\n    mapping (uint => Cooperation) public cooperations;\r\n    \r\n    mapping (uint => string[]) public colByDataset;\r\n    \r\n    // mapping (uint => Mem[]) public cooperationMem;\r\n\r\n    // mapping (uint => string[]) public cooperationFile;\r\n\r\n    event createMemEvent(\r\n        string orgnizationName,\r\n        string email,\r\n        string phone,\r\n        address addr\r\n    );\r\n    \r\n    event uploaDatesetEvent(\r\n        uint _cooperationID,\r\n        uint datasetID,\r\n        string ipfsHash,\r\n        address ownerAddress\r\n    );\r\n    \r\n    event createCooperationEvent(\r\n        uint cooperationID,\r\n        string target,\r\n        address ownerAddress,\r\n        string hostName\r\n    );\r\n\r\n    event uploadResEvent(\r\n        uint resultID,\r\n        uint cooperationID,\r\n        string ipfsHashResult\r\n    );\r\n    \r\n    //\r\n    function createMember(string memory _orgnizationName, string memory _email, string memory _phone)public{\r\n        Mem memory m;\r\n        m = Mem({\r\n            orgnizationName: _orgnizationName,\r\n            email: _email,\r\n            phone:_phone,\r\n            addr: msg.sender\r\n        });\r\n        members[msg.sender] = m;\r\n        memberCheck[msg.sender]=true;\r\n        emit createMemEvent(\r\n            _orgnizationName,\r\n            _email,\r\n            _phone,\r\n            msg.sender\r\n        );\r\n    }\r\n      \r\n    //\r\n    function uploadDataset(string memory _ipfsHash ,uint _privacy,uint _cooperationID) public memberOnly{\r\n        Dataset memory dataset;\r\n        datasetCnt++;\r\n        \r\n        dataset=Dataset({\r\n            cooperationID:_cooperationID,\r\n            datasetID : datasetCnt,\r\n            ipfsHash : _ipfsHash,\r\n            privacy:_privacy,\r\n            getResult : false,\r\n            ownerAddress :msg.sender\r\n        });\r\n        // addCooperationMem(_cooperationID, members[msg.sender]);\r\n        // addCooperationFile(_cooperationID,dataset.ipfsHash);\r\n        datasets[dataset.datasetID] = dataset;\r\n        \r\n        emit uploaDatesetEvent(\r\n            _cooperationID,\r\n            dataset.datasetID,\r\n            _ipfsHash,\r\n            msg.sender\r\n        );\r\n    }\r\n\r\n    function addColumn(uint _datasetID,string memory _col) public {\r\n        colByDataset[_datasetID].push(_col);\r\n    }\r\n    \r\n    \r\n    function createCooperation( string memory _target) public {\r\n        cooperationCnt++;\r\n        Cooperation storage coo = cooperations[cooperationCnt];\r\n        //Initialize\r\n        coo.cooperationID=cooperationCnt;\r\n        coo.target=_target;\r\n        coo.resultDataset='';\r\n        coo.host=msg.sender;\r\n        coo.memCnt=0;\r\n        coo.mems[coo.memCnt]=members[msg.sender];\r\n\r\n        emit createCooperationEvent(\r\n            coo.cooperationID,\r\n            coo.target,\r\n            coo.host,\r\n            coo.mems[coo.memCnt].orgnizationName\r\n        );\r\n    }\r\n\r\n    function getCooMemName(uint _cooperationID,uint _memIdx) public view returns(string memory){\r\n        Cooperation storage coo = cooperations[_cooperationID];\r\n        return coo.mems[_memIdx].orgnizationName;\r\n    }\r\n    \r\n    function getCooMemPhone(uint _cooperationID,uint _memIdx) public view returns(string memory){\r\n        Cooperation storage coo = cooperations[_cooperationID];\r\n        return coo.mems[_memIdx].phone;\r\n    }\r\n\r\n    function getCooMemEmail(uint _cooperationID,uint _memIdx) public view returns(string memory){\r\n        Cooperation storage coo = cooperations[_cooperationID];\r\n        return coo.mems[_memIdx].email;\r\n    }\r\n\r\n    function getCooMemAddr(uint _cooperationID,uint _memIdx) public view returns(address){\r\n        Cooperation storage coo = cooperations[_cooperationID];\r\n        return coo.mems[_memIdx].addr;\r\n    }\r\n    \r\n    event addMem(\r\n        uint memCnt,\r\n        string memName\r\n    );\r\n    function addCooperationMem(uint _cooperationID) public {\r\n        cooperations[_cooperationID].memCnt++;\r\n        cooperations[_cooperationID].mems[cooperations[_cooperationID].memCnt]=members[msg.sender];\r\n        emit addMem(\r\n            cooperations[_cooperationID].memCnt,\r\n            cooperations[_cooperationID].mems[cooperations[_cooperationID].memCnt].orgnizationName\r\n        );\r\n    }\r\n    \r\n    \r\n    // function addCooperationFile(uint _cooperationID,string memory _ipfs) public {\r\n    //     cooperationFile[_cooperationID].push(_ipfs);\r\n    // }\r\n    \r\n    function uploadResultFile(uint _cooperationID ,string memory _ipfsHash) public managerOnly{\r\n        ResultDataset memory RD;\r\n        resultsetCnt++;\r\n        RD=ResultDataset({\r\n            resultID:resultsetCnt,\r\n            cooperationID:_cooperationID,\r\n            ipfsHashResult:_ipfsHash\r\n        });\r\n        results[RD.resultID]=RD;\r\n        cooperations[_cooperationID].resultDataset=_ipfsHash;\r\n        \r\n        emit uploadResEvent(\r\n            RD.resultID,\r\n            _cooperationID,\r\n            _ipfsHash\r\n        );\r\n    }\r\n\r\n    \r\n}\r\n\r\n",
  "sourcePath": "C:\\Users\\user\\Desktop\\DataSharePlatform\\src\\contracts\\DSPF.sol",
  "compiler": {
    "name": "solc",
    "version": "0.7.0+commit.9e61f92b.Emscripten.clang"
  },
  "schemaVersion": "3.4.3",
  "updatedAt": "2021-11-26T07:27:25.057Z",
  "networkType": "ethereum",
  "devdoc": {
    "kind": "dev",
    "methods": {},
    "version": 1
  },
  "userdoc": {
    "kind": "user",
    "methods": {},
    "version": 1
  }
}