{
  "contractName": "Member",
  "abi": [
    {
      "constant": true,
      "inputs": [
        {
          "name": "",
          "type": "address"
        }
      ],
      "name": "members",
      "outputs": [
        {
          "name": "name",
          "type": "string"
        },
        {
          "name": "email",
          "type": "string"
        },
        {
          "name": "gender",
          "type": "int256"
        },
        {
          "name": "age",
          "type": "int256"
        },
        {
          "name": "addr",
          "type": "address"
        }
      ],
      "payable": false,
      "stateMutability": "view",
      "type": "function",
      "signature": "0x08ae4b0c"
    },
    {
      "constant": true,
      "inputs": [
        {
          "name": "",
          "type": "address"
        }
      ],
      "name": "memberCheck",
      "outputs": [
        {
          "name": "",
          "type": "bool"
        }
      ],
      "payable": false,
      "stateMutability": "view",
      "type": "function",
      "signature": "0x7497796c"
    },
    {
      "constant": true,
      "inputs": [
        {
          "name": "",
          "type": "address"
        }
      ],
      "name": "requests",
      "outputs": [
        {
          "name": "column",
          "type": "string"
        },
        {
          "name": "privacy",
          "type": "int256"
        },
        {
          "name": "target",
          "type": "string"
        }
      ],
      "payable": false,
      "stateMutability": "view",
      "type": "function",
      "signature": "0x74adad1d"
    },
    {
      "inputs": [],
      "payable": false,
      "stateMutability": "nonpayable",
      "type": "constructor",
      "signature": "constructor"
    },
    {
      "constant": false,
      "inputs": [
        {
          "name": "_name",
          "type": "string"
        },
        {
          "name": "_email",
          "type": "string"
        },
        {
          "name": "_gender",
          "type": "int256"
        },
        {
          "name": "_age",
          "type": "int256"
        }
      ],
      "name": "createMember",
      "outputs": [],
      "payable": false,
      "stateMutability": "nonpayable",
      "type": "function",
      "signature": "0xb98d195a"
    },
    {
      "constant": true,
      "inputs": [],
      "name": "getMemberName",
      "outputs": [
        {
          "name": "",
          "type": "string"
        }
      ],
      "payable": false,
      "stateMutability": "view",
      "type": "function",
      "signature": "0x282c9080"
    },
    {
      "constant": false,
      "inputs": [
        {
          "name": "_column",
          "type": "string"
        },
        {
          "name": "_privacy",
          "type": "int256"
        },
        {
          "name": "_target",
          "type": "string"
        }
      ],
      "name": "createRequest",
      "outputs": [],
      "payable": false,
      "stateMutability": "nonpayable",
      "type": "function",
      "signature": "0x35920bda"
    },
    {
      "constant": true,
      "inputs": [],
      "name": "getMemberRequest",
      "outputs": [
        {
          "name": "",
          "type": "string"
        }
      ],
      "payable": false,
      "stateMutability": "view",
      "type": "function",
      "signature": "0x73acb78c"
    }
  ],
  "bytecode": "0x608060405234801561001057600080fd5b5061102c806100206000396000f3fe608060405260043610610083576000357c0100000000000000000000000000000000000000000000000000000000900463ffffffff16806308ae4b0c14610088578063282c9080146101ff57806335920bda1461028f57806373acb78c146103f85780637497796c1461048857806374adad1d146104f1578063b98d195a1461062e575b600080fd5b34801561009457600080fd5b506100d7600480360360208110156100ab57600080fd5b81019080803573ffffffffffffffffffffffffffffffffffffffff1690602001909291905050506107a1565b6040518080602001806020018681526020018581526020018473ffffffffffffffffffffffffffffffffffffffff1673ffffffffffffffffffffffffffffffffffffffff168152602001838103835288818151815260200191508051906020019080838360005b8381101561015957808201518184015260208101905061013e565b50505050905090810190601f1680156101865780820380516001836020036101000a031916815260200191505b50838103825287818151815260200191508051906020019080838360005b838110156101bf5780820151818401526020810190506101a4565b50505050905090810190601f1680156101ec5780820380516001836020036101000a031916815260200191505b5097505050505050505060405180910390f35b34801561020b57600080fd5b50610214610927565b6040518080602001828103825283818151815260200191508051906020019080838360005b83811015610254578082015181840152602081019050610239565b50505050905090810190601f1680156102815780820380516001836020036101000a031916815260200191505b509250505060405180910390f35b34801561029b57600080fd5b506103f6600480360360608110156102b257600080fd5b81019080803590602001906401000000008111156102cf57600080fd5b8201836020820111156102e157600080fd5b8035906020019184600183028401116401000000008311171561030357600080fd5b91908080601f016020809104026020016040519081016040528093929190818152602001838380828437600081840152601f19601f820116905080830192505050505050509192919290803590602001909291908035906020019064010000000081111561037057600080fd5b82018360208201111561038257600080fd5b803590602001918460018302840111640100000000831117156103a457600080fd5b91908080601f016020809104026020016040519081016040528093929190818152602001838380828437600081840152601f19601f820116905080830192505050505050509192919290505050610a08565b005b34801561040457600080fd5b5061040d610b1a565b6040518080602001828103825283818151815260200191508051906020019080838360005b8381101561044d578082015181840152602081019050610432565b50505050905090810190601f16801561047a5780820380516001836020036101000a031916815260200191505b509250505060405180910390f35b34801561049457600080fd5b506104d7600480360360208110156104ab57600080fd5b81019080803573ffffffffffffffffffffffffffffffffffffffff169060200190929190505050610bfc565b604051808215151515815260200191505060405180910390f35b3480156104fd57600080fd5b506105406004803603602081101561051457600080fd5b81019080803573ffffffffffffffffffffffffffffffffffffffff169060200190929190505050610c1c565b604051808060200184815260200180602001838103835286818151815260200191508051906020019080838360005b8381101561058a57808201518184015260208101905061056f565b50505050905090810190601f1680156105b75780820380516001836020036101000a031916815260200191505b50838103825284818151815260200191508051906020019080838360005b838110156105f05780820151818401526020810190506105d5565b50505050905090810190601f16801561061d5780820380516001836020036101000a031916815260200191505b509550505050505060405180910390f35b34801561063a57600080fd5b5061079f6004803603608081101561065157600080fd5b810190808035906020019064010000000081111561066e57600080fd5b82018360208201111561068057600080fd5b803590602001918460018302840111640100000000831117156106a257600080fd5b91908080601f016020809104026020016040519081016040528093929190818152602001838380828437600081840152601f19601f8201169050808301925050505050505091929192908035906020019064010000000081111561070557600080fd5b82018360208201111561071757600080fd5b8035906020019184600183028401116401000000008311171561073957600080fd5b91908080601f016020809104026020016040519081016040528093929190818152602001838380828437600081840152601f19601f8201169050808301925050505050505091929192908035906020019092919080359060200190929190505050610d76565b005b6000602052806000526040600020600091509050806000018054600181600116156101000203166002900480601f01602080910402602001604051908101604052809291908181526020018280546001816001161561010002031660029004801561084d5780601f106108225761010080835404028352916020019161084d565b820191906000526020600020905b81548152906001019060200180831161083057829003601f168201915b505050505090806001018054600181600116156101000203166002900480601f0160208091040260200160405190810160405280929190818152602001828054600181600116156101000203166002900480156108eb5780601f106108c0576101008083540402835291602001916108eb565b820191906000526020600020905b8154815290600101906020018083116108ce57829003601f168201915b5050505050908060020154908060030154908060040160009054906101000a900473ffffffffffffffffffffffffffffffffffffffff16905085565b60606000803373ffffffffffffffffffffffffffffffffffffffff1673ffffffffffffffffffffffffffffffffffffffff1681526020019081526020016000206000018054600181600116156101000203166002900480601f0160208091040260200160405190810160405280929190818152602001828054600181600116156101000203166002900480156109fe5780601f106109d3576101008083540402835291602001916109fe565b820191906000526020600020905b8154815290600101906020018083116109e157829003601f168201915b5050505050905090565b60011515600160003373ffffffffffffffffffffffffffffffffffffffff1673ffffffffffffffffffffffffffffffffffffffff16815260200190815260200160002060009054906101000a900460ff161515141515610a6757600080fd5b610a6f610ef3565b60606040519081016040528085815260200184815260200183815250905080600260003373ffffffffffffffffffffffffffffffffffffffff1673ffffffffffffffffffffffffffffffffffffffff1681526020019081526020016000206000820151816000019080519060200190610ae9929190610f15565b50602082015181600101556040820151816002019080519060200190610b10929190610f15565b5090505050505050565b6060600260003373ffffffffffffffffffffffffffffffffffffffff1673ffffffffffffffffffffffffffffffffffffffff1681526020019081526020016000206002018054600181600116156101000203166002900480601f016020809104026020016040519081016040528092919081815260200182805460018160011615610100020316600290048015610bf25780601f10610bc757610100808354040283529160200191610bf2565b820191906000526020600020905b815481529060010190602001808311610bd557829003601f168201915b5050505050905090565b60016020528060005260406000206000915054906101000a900460ff1681565b6002602052806000526040600020600091509050806000018054600181600116156101000203166002900480601f016020809104026020016040519081016040528092919081815260200182805460018160011615610100020316600290048015610cc85780601f10610c9d57610100808354040283529160200191610cc8565b820191906000526020600020905b815481529060010190602001808311610cab57829003601f168201915b505050505090806001015490806002018054600181600116156101000203166002900480601f016020809104026020016040519081016040528092919081815260200182805460018160011615610100020316600290048015610d6c5780601f10610d4157610100808354040283529160200191610d6c565b820191906000526020600020905b815481529060010190602001808311610d4f57829003601f168201915b5050505050905083565b610d7e610f95565b60a0604051908101604052808681526020018581526020018481526020018381526020013373ffffffffffffffffffffffffffffffffffffffff168152509050806000803373ffffffffffffffffffffffffffffffffffffffff1673ffffffffffffffffffffffffffffffffffffffff1681526020019081526020016000206000820151816000019080519060200190610e19929190610f15565b506020820151816001019080519060200190610e36929190610f15565b50604082015181600201556060820151816003015560808201518160040160006101000a81548173ffffffffffffffffffffffffffffffffffffffff021916908373ffffffffffffffffffffffffffffffffffffffff16021790555090505060018060003373ffffffffffffffffffffffffffffffffffffffff1673ffffffffffffffffffffffffffffffffffffffff16815260200190815260200160002060006101000a81548160ff0219169083151502179055505050505050565b6060604051908101604052806060815260200160008152602001606081525090565b828054600181600116156101000203166002900490600052602060002090601f016020900481019282601f10610f5657805160ff1916838001178555610f84565b82800160010185558215610f84579182015b82811115610f83578251825591602001919060010190610f68565b5b509050610f919190610fdb565b5090565b60a06040519081016040528060608152602001606081526020016000815260200160008152602001600073ffffffffffffffffffffffffffffffffffffffff1681525090565b610ffd91905b80821115610ff9576000816000905550600101610fe1565b5090565b9056fea165627a7a723058209e2ac65cd51ed65f6a0a3dcb12455c61f4002d96a4955707a4cb8c0f913cd4420029",
  "source": "pragma solidity ^0.5.0;\n\n/**\n * @title Storage\n * @dev Store & retrieve value in a variable\n */\ncontract Member {\n    constructor() public{\n    }\n    \n    struct Mem{\n        string name;\n        string email;\n        int gender; // 0= male 1= female\n        int age; \n        address addr;\n    }\n    \n    struct Request{\n        string column;\n        int privacy;\n        string target;\n    }\n\n    modifier memberOnly{\n        require(memberCheck[msg.sender]==true);\n        _;\n    }\n    \n    mapping (address => Mem) public members;\n    mapping (address => bool) public memberCheck;\n\n    mapping (address => Request) public requests;\n    \n    function createMember(string memory _name, string memory _email,int _gender, int _age)public {\n        Mem memory m;\n        m = Mem({\n            name: _name,\n            email: _email,\n            gender: _gender,\n            age: _age,\n            addr: msg.sender\n        });\n        members[msg.sender] = m;\n        memberCheck[msg.sender]=true;\n    }\n    \n    function getMemberName() public view returns(string memory){\n        return members[msg.sender].name;\n    }\n    \n    function createRequest(string memory _column,int _privacy,string memory _target) public memberOnly{\n        Request memory r;\n        r=Request({\n            column:_column,\n            privacy:_privacy,\n            target:_target\n        });\n        requests[msg.sender] = r;\n    }\n    \n    function getMemberRequest() public view returns(string memory){\n        return requests[msg.sender].target;\n    }\n}\n\n",
  "sourcePath": "/home/jason/jason_project/src/contracts/Member.sol",
  "compiler": {
    "name": "solc",
    "version": "0.5.0+commit.1d4f565a.Emscripten.clang"
  },
  "schemaVersion": "3.0.2",
  "updatedAt": "2021-10-26T13:14:53.467Z",
  "devdoc": {
    "details": "Store & retrieve value in a variable",
    "methods": {},
    "title": "Storage"
  },
  "userdoc": {
    "methods": {}
  }
}