{
  "contractName": "Platform",
  "abi": [
    {
      "inputs": [],
      "stateMutability": "nonpayable",
      "type": "constructor"
    },
    {
      "inputs": [],
      "name": "datasetCnt",
      "outputs": [
        {
          "internalType": "uint256",
          "name": "",
          "type": "uint256"
        }
      ],
      "stateMutability": "view",
      "type": "function",
      "constant": true
    },
    {
      "inputs": [
        {
          "internalType": "string",
          "name": "",
          "type": "string"
        }
      ],
      "name": "ipfsOwner",
      "outputs": [
        {
          "internalType": "address",
          "name": "",
          "type": "address"
        }
      ],
      "stateMutability": "view",
      "type": "function",
      "constant": true
    },
    {
      "inputs": [],
      "name": "manager",
      "outputs": [
        {
          "internalType": "address",
          "name": "",
          "type": "address"
        }
      ],
      "stateMutability": "view",
      "type": "function",
      "constant": true
    },
    {
      "inputs": [
        {
          "internalType": "address",
          "name": "",
          "type": "address"
        }
      ],
      "name": "memberCheck",
      "outputs": [
        {
          "internalType": "bool",
          "name": "",
          "type": "bool"
        }
      ],
      "stateMutability": "view",
      "type": "function",
      "constant": true
    },
    {
      "inputs": [
        {
          "internalType": "address",
          "name": "",
          "type": "address"
        }
      ],
      "name": "members",
      "outputs": [
        {
          "internalType": "string",
          "name": "name",
          "type": "string"
        },
        {
          "internalType": "string",
          "name": "email",
          "type": "string"
        },
        {
          "internalType": "string",
          "name": "phone",
          "type": "string"
        },
        {
          "internalType": "address",
          "name": "addr",
          "type": "address"
        }
      ],
      "stateMutability": "view",
      "type": "function",
      "constant": true
    },
    {
      "inputs": [
        {
          "internalType": "uint256",
          "name": "",
          "type": "uint256"
        }
      ],
      "name": "requestsID",
      "outputs": [
        {
          "internalType": "uint256",
          "name": "ID",
          "type": "uint256"
        },
        {
          "internalType": "string",
          "name": "column",
          "type": "string"
        },
        {
          "internalType": "int256",
          "name": "privacyRequirement",
          "type": "int256"
        },
        {
          "internalType": "string",
          "name": "discription",
          "type": "string"
        },
        {
          "internalType": "string",
          "name": "ipfsHash",
          "type": "string"
        },
        {
          "internalType": "string",
          "name": "ipfsHashShare",
          "type": "string"
        },
        {
          "internalType": "string",
          "name": "ipfsHashResult",
          "type": "string"
        },
        {
          "internalType": "address",
          "name": "ownerAddress",
          "type": "address"
        }
      ],
      "stateMutability": "view",
      "type": "function",
      "constant": true
    },
    {
      "inputs": [
        {
          "internalType": "string",
          "name": "_name",
          "type": "string"
        },
        {
          "internalType": "string",
          "name": "_email",
          "type": "string"
        },
        {
          "internalType": "string",
          "name": "_phone",
          "type": "string"
        }
      ],
      "name": "createMember",
      "outputs": [],
      "stateMutability": "nonpayable",
      "type": "function"
    },
    {
      "inputs": [
        {
          "internalType": "string",
          "name": "_ipfsHash",
          "type": "string"
        },
        {
          "internalType": "string",
          "name": "_column",
          "type": "string"
        },
        {
          "internalType": "int256",
          "name": "_privacy",
          "type": "int256"
        },
        {
          "internalType": "string",
          "name": "_discription",
          "type": "string"
        }
      ],
      "name": "createRequest",
      "outputs": [],
      "stateMutability": "nonpayable",
      "type": "function"
    },
    {
      "inputs": [
        {
          "internalType": "uint256",
          "name": "reqid",
          "type": "uint256"
        },
        {
          "internalType": "string",
          "name": "_ipfsHash",
          "type": "string"
        },
        {
          "internalType": "string",
          "name": "_column",
          "type": "string"
        },
        {
          "internalType": "int256",
          "name": "_privacy",
          "type": "int256"
        }
      ],
      "name": "createShare",
      "outputs": [],
      "stateMutability": "nonpayable",
      "type": "function"
    },
    {
      "inputs": [
        {
          "internalType": "uint256",
          "name": "id",
          "type": "uint256"
        },
        {
          "internalType": "string",
          "name": "_ipfsHash",
          "type": "string"
        }
      ],
      "name": "uploadResultFile",
      "outputs": [],
      "stateMutability": "nonpayable",
      "type": "function"
    }
  ],
  "bytecode": "0x6080604052600060015534801561001557600080fd5b50336000806101000a81548173ffffffffffffffffffffffffffffffffffffffff021916908373ffffffffffffffffffffffffffffffffffffffff160217905550611b19806100656000396000f3fe608060405234801561001057600080fd5b506004361061009e5760003560e01c8063b6adfba911610066578063b6adfba91461062a578063c6bdf0dd14610790578063dc0b7be614610979578063faf5a13d14610b6c578063ffb6212a14610c515761009e565b806308ae4b0c146100a357806318a5d6d714610255578063481c6a751461031a5780637497796c1461034e5780638cad8334146103a8575b600080fd5b6100e5600480360360208110156100b957600080fd5b81019080803573ffffffffffffffffffffffffffffffffffffffff169060200190929190505050610c6f565b604051808060200180602001806020018573ffffffffffffffffffffffffffffffffffffffff168152602001848103845288818151815260200191508051906020019080838360005b8381101561014957808201518184015260208101905061012e565b50505050905090810190601f1680156101765780820380516001836020036101000a031916815260200191505b50848103835287818151815260200191508051906020019080838360005b838110156101af578082015181840152602081019050610194565b50505050905090810190601f1680156101dc5780820380516001836020036101000a031916815260200191505b50848103825286818151815260200191508051906020019080838360005b838110156102155780820151818401526020810190506101fa565b50505050905090810190601f1680156102425780820380516001836020036101000a031916815260200191505b5097505050505050505060405180910390f35b6103186004803603604081101561026b57600080fd5b81019080803590602001909291908035906020019064010000000081111561029257600080fd5b8201836020820111156102a457600080fd5b803590602001918460018302840111640100000000831117156102c657600080fd5b91908080601f016020809104026020016040519081016040528093929190818152602001838380828437600081840152601f19601f820116905080830192505050505050509192919290505050610e87565b005b610322610fb6565b604051808273ffffffffffffffffffffffffffffffffffffffff16815260200191505060405180910390f35b6103906004803603602081101561036457600080fd5b81019080803573ffffffffffffffffffffffffffffffffffffffff169060200190929190505050610fda565b60405180821515815260200191505060405180910390f35b6103d4600480360360208110156103be57600080fd5b8101908080359060200190929190505050610ffa565b6040518089815260200180602001888152602001806020018060200180602001806020018773ffffffffffffffffffffffffffffffffffffffff16815260200186810386528d818151815260200191508051906020019080838360005b8381101561044c578082015181840152602081019050610431565b50505050905090810190601f1680156104795780820380516001836020036101000a031916815260200191505b5086810385528b818151815260200191508051906020019080838360005b838110156104b2578082015181840152602081019050610497565b50505050905090810190601f1680156104df5780820380516001836020036101000a031916815260200191505b5086810384528a818151815260200191508051906020019080838360005b838110156105185780820151818401526020810190506104fd565b50505050905090810190601f1680156105455780820380516001836020036101000a031916815260200191505b50868103835289818151815260200191508051906020019080838360005b8381101561057e578082015181840152602081019050610563565b50505050905090810190601f1680156105ab5780820380516001836020036101000a031916815260200191505b50868103825288818151815260200191508051906020019080838360005b838110156105e45780820151818401526020810190506105c9565b50505050905090810190601f1680156106115780820380516001836020036101000a031916815260200191505b509d505050505050505050505050505060405180910390f35b61078e6004803603608081101561064057600080fd5b81019080803590602001909291908035906020019064010000000081111561066757600080fd5b82018360208201111561067957600080fd5b8035906020019184600183028401116401000000008311171561069b57600080fd5b91908080601f016020809104026020016040519081016040528093929190818152602001838380828437600081840152601f19601f820116905080830192505050505050509192919290803590602001906401000000008111156106fe57600080fd5b82018360208201111561071057600080fd5b8035906020019184600183028401116401000000008311171561073257600080fd5b91908080601f016020809104026020016040519081016040528093929190818152602001838380828437600081840152601f19601f8201169050808301925050505050505091929192908035906020019092919050505061135a565b005b610977600480360360608110156107a657600080fd5b81019080803590602001906401000000008111156107c357600080fd5b8201836020820111156107d557600080fd5b803590602001918460018302840111640100000000831117156107f757600080fd5b91908080601f016020809104026020016040519081016040528093929190818152602001838380828437600081840152601f19601f8201169050808301925050505050505091929192908035906020019064010000000081111561085a57600080fd5b82018360208201111561086c57600080fd5b8035906020019184600183028401116401000000008311171561088e57600080fd5b91908080601f016020809104026020016040519081016040528093929190818152602001838380828437600081840152601f19601f820116905080830192505050505050509192919290803590602001906401000000008111156108f157600080fd5b82018360208201111561090357600080fd5b8035906020019184600183028401116401000000008311171561092557600080fd5b91908080601f016020809104026020016040519081016040528093929190818152602001838380828437600081840152601f19601f82011690508083019250505050505050919291929050505061153f565b005b610b6a6004803603608081101561098f57600080fd5b81019080803590602001906401000000008111156109ac57600080fd5b8201836020820111156109be57600080fd5b803590602001918460018302840111640100000000831117156109e057600080fd5b91908080601f016020809104026020016040519081016040528093929190818152602001838380828437600081840152601f19601f82011690508083019250505050505050919291929080359060200190640100000000811115610a4357600080fd5b820183602082011115610a5557600080fd5b80359060200191846001830284011164010000000083111715610a7757600080fd5b91908080601f016020809104026020016040519081016040528093929190818152602001838380828437600081840152601f19601f8201169050808301925050505050505091929192908035906020019092919080359060200190640100000000811115610ae457600080fd5b820183602082011115610af657600080fd5b80359060200191846001830284011164010000000083111715610b1857600080fd5b91908080601f016020809104026020016040519081016040528093929190818152602001838380828437600081840152601f19601f8201169050808301925050505050505091929192905050506116bf565b005b610c2560048036036020811015610b8257600080fd5b8101908080359060200190640100000000811115610b9f57600080fd5b820183602082011115610bb157600080fd5b80359060200191846001830284011164010000000083111715610bd357600080fd5b91908080601f016020809104026020016040519081016040528093929190818152602001838380828437600081840152601f19601f82011690508083019250505050505050919291929050505061195e565b604051808273ffffffffffffffffffffffffffffffffffffffff16815260200191505060405180910390f35b610c596119a7565b6040518082815260200191505060405180910390f35b6002602052806000526040600020600091509050806000018054600181600116156101000203166002900480601f016020809104026020016040519081016040528092919081815260200182805460018160011615610100020316600290048015610d1b5780601f10610cf057610100808354040283529160200191610d1b565b820191906000526020600020905b815481529060010190602001808311610cfe57829003601f168201915b505050505090806001018054600181600116156101000203166002900480601f016020809104026020016040519081016040528092919081815260200182805460018160011615610100020316600290048015610db95780601f10610d8e57610100808354040283529160200191610db9565b820191906000526020600020905b815481529060010190602001808311610d9c57829003601f168201915b505050505090806002018054600181600116156101000203166002900480601f016020809104026020016040519081016040528092919081815260200182805460018160011615610100020316600290048015610e575780601f10610e2c57610100808354040283529160200191610e57565b820191906000526020600020905b815481529060010190602001808311610e3a57829003601f168201915b5050505050908060030160009054906101000a900473ffffffffffffffffffffffffffffffffffffffff16905084565b60008054906101000a900473ffffffffffffffffffffffffffffffffffffffff1673ffffffffffffffffffffffffffffffffffffffff163373ffffffffffffffffffffffffffffffffffffffff1614610edf57600080fd5b336005826040518082805190602001908083835b60208310610f165780518252602082019150602081019050602083039250610ef3565b6001836020036101000a038019825116818451168082178552505050505050905001915050908152602001604051809103902060006101000a81548173ffffffffffffffffffffffffffffffffffffffff021916908373ffffffffffffffffffffffffffffffffffffffff16021790555080600460008481526020019081526020016000206006019080519060200190610fb19291906119ad565b505050565b60008054906101000a900473ffffffffffffffffffffffffffffffffffffffff1681565b60036020528060005260406000206000915054906101000a900460ff1681565b6004602052806000526040600020600091509050806000015490806001018054600181600116156101000203166002900480601f0160208091040260200160405190810160405280929190818152602001828054600181600116156101000203166002900480156110ac5780601f10611081576101008083540402835291602001916110ac565b820191906000526020600020905b81548152906001019060200180831161108f57829003601f168201915b505050505090806002015490806003018054600181600116156101000203166002900480601f0160208091040260200160405190810160405280929190818152602001828054600181600116156101000203166002900480156111505780601f1061112557610100808354040283529160200191611150565b820191906000526020600020905b81548152906001019060200180831161113357829003601f168201915b505050505090806004018054600181600116156101000203166002900480601f0160208091040260200160405190810160405280929190818152602001828054600181600116156101000203166002900480156111ee5780601f106111c3576101008083540402835291602001916111ee565b820191906000526020600020905b8154815290600101906020018083116111d157829003601f168201915b505050505090806005018054600181600116156101000203166002900480601f01602080910402602001604051908101604052809291908181526020018280546001816001161561010002031660029004801561128c5780601f106112615761010080835404028352916020019161128c565b820191906000526020600020905b81548152906001019060200180831161126f57829003601f168201915b505050505090806006018054600181600116156101000203166002900480601f01602080910402602001604051908101604052809291908181526020018280546001816001161561010002031660029004801561132a5780601f106112ff5761010080835404028352916020019161132a565b820191906000526020600020905b81548152906001019060200180831161130d57829003601f168201915b5050505050908060070160009054906101000a900473ffffffffffffffffffffffffffffffffffffffff16905088565b60011515600360003373ffffffffffffffffffffffffffffffffffffffff1673ffffffffffffffffffffffffffffffffffffffff16815260200190815260200160002060009054906101000a900460ff161515146113b757600080fd5b6113bf611a2d565b604051806101000160405280600081526020018481526020018381526020016040518060400160405280600581526020017f736861726500000000000000000000000000000000000000000000000000000081525081526020018581526020016040518060200160405280600081525081526020016040518060200160405280600081525081526020013373ffffffffffffffffffffffffffffffffffffffff168152509050336005856040518082805190602001908083835b6020831061149c5780518252602082019150602081019050602083039250611479565b6001836020036101000a038019825116818451168082178552505050505050905001915050908152602001604051809103902060006101000a81548173ffffffffffffffffffffffffffffffffffffffff021916908373ffffffffffffffffffffffffffffffffffffffff160217905550836004600087815260200190815260200160002060050190805190602001906115379291906119ad565b505050505050565b611547611a88565b60405180608001604052808581526020018481526020018381526020013373ffffffffffffffffffffffffffffffffffffffff16815250905080600260003373ffffffffffffffffffffffffffffffffffffffff1673ffffffffffffffffffffffffffffffffffffffff16815260200190815260200160002060008201518160000190805190602001906115dc9291906119ad565b5060208201518160010190805190602001906115f99291906119ad565b5060408201518160020190805190602001906116169291906119ad565b5060608201518160030160006101000a81548173ffffffffffffffffffffffffffffffffffffffff021916908373ffffffffffffffffffffffffffffffffffffffff1602179055509050506001600360003373ffffffffffffffffffffffffffffffffffffffff1673ffffffffffffffffffffffffffffffffffffffff16815260200190815260200160002060006101000a81548160ff02191690831515021790555050505050565b60011515600360003373ffffffffffffffffffffffffffffffffffffffff1673ffffffffffffffffffffffffffffffffffffffff16815260200190815260200160002060009054906101000a900460ff1615151461171c57600080fd5b611724611a2d565b60016000815480929190600101919050555060405180610100016040528060015481526020018581526020018481526020018381526020018681526020016040518060200160405280600081525081526020016040518060200160405280600081525081526020013373ffffffffffffffffffffffffffffffffffffffff168152509050336005866040518082805190602001908083835b602083106117df57805182526020820191506020810190506020830392506117bc565b6001836020036101000a038019825116818451168082178552505050505050905001915050908152602001604051809103902060006101000a81548173ffffffffffffffffffffffffffffffffffffffff021916908373ffffffffffffffffffffffffffffffffffffffff16021790555080600460008360000151815260200190815260200160002060008201518160000155602082015181600101908051906020019061188e9291906119ad565b506040820151816002015560608201518160030190805190602001906118b59291906119ad565b5060808201518160040190805190602001906118d29291906119ad565b5060a08201518160050190805190602001906118ef9291906119ad565b5060c082015181600601908051906020019061190c9291906119ad565b5060e08201518160070160006101000a81548173ffffffffffffffffffffffffffffffffffffffff021916908373ffffffffffffffffffffffffffffffffffffffff1602179055509050505050505050565b6005818051602081018201805184825260208301602085012081835280955050505050506000915054906101000a900473ffffffffffffffffffffffffffffffffffffffff1681565b60015481565b828054600181600116156101000203166002900490600052602060002090601f016020900481019282601f106119ee57805160ff1916838001178555611a1c565b82800160010185558215611a1c579182015b82811115611a1b578251825591602001919060010190611a00565b5b509050611a299190611ac6565b5090565b60405180610100016040528060008152602001606081526020016000815260200160608152602001606081526020016060815260200160608152602001600073ffffffffffffffffffffffffffffffffffffffff1681525090565b6040518060800160405280606081526020016060815260200160608152602001600073ffffffffffffffffffffffffffffffffffffffff1681525090565b5b80821115611adf576000816000905550600101611ac7565b509056fea26469706673582212208ddf27748d98d9de49574fdc4cca0103b02f5afca5038fe389de0d1ebc3dd95564736f6c63430007000033",
  "immutableReferences": {},
  "source": "pragma solidity >=0.7.0 <0.9.0;\n\ncontract Platform {\n    //平台管理者帳號\n    address public manager;\n    //計算資料要求的總數\n    uint public datasetCnt =0;\n    \n    //初始化平台管理者\n    constructor(){\n        manager = msg.sender;\n    }\n    \n    //成員架構\n    struct Mem{\n        string name;\n        string email;\n        string phone;\n        address addr;\n    }\n    \n    //資料表架構\n    struct Dataset{\n        uint ID;\n        string column;\n        int privacyRequirement;\n        string discription;\n        string ipfsHash;\n        string ipfsHashShare;\n        string ipfsHashResult;\n        address ownerAddress;\n    }\n    \n\n    //判斷是否為成員\n    modifier memberOnly{\n        require(memberCheck[msg.sender]==true);\n        _;\n    }\n\n    //判斷是否為管理員\n    modifier managerOnly{\n        require(msg.sender==manager);\n        _;\n    }\n    \n    //位址對應成員的map\n    mapping (address => Mem) public members;\n    \n    //判斷該位址是否已成為成員\n    mapping (address => bool) public memberCheck;\n\n    //資料要求的ID\n    mapping (uint => Dataset) public requestsID;\n    \n    //需求者對應address和ipfs的hash\n    mapping (string => address) public ipfsOwner;\n\n\n    //新增成員\n    function createMember(string memory _name, string memory _email, string memory _phone)public{\n        Mem memory m;\n        m = Mem({\n            name: _name,\n            email: _email,\n            phone:_phone,\n            addr: msg.sender\n        });\n        members[msg.sender] = m;\n        memberCheck[msg.sender]=true;\n    }\n      \n    //新增需求\n    function createRequest(string memory _ipfsHash ,string memory _column,int _privacy,string memory _discription) public memberOnly{\n        Dataset memory res;\n        datasetCnt++;\n        res=Dataset({\n            ID: datasetCnt,\n            column:_column,\n            privacyRequirement:_privacy,\n            discription:_discription,\n            ipfsHash:_ipfsHash,\n            ipfsHashShare:'',\n            ipfsHashResult:'',\n            ownerAddress:msg.sender\n        });\n        ipfsOwner[_ipfsHash] = msg.sender;\n        requestsID[res.ID] = res;\n    }\n    \n    //新增分享\n    function createShare(uint reqid,string memory _ipfsHash ,string memory _column,int _privacy) public memberOnly{\n        Dataset memory res;\n        res=Dataset({\n            ID: 0,\n            column:_column,\n            privacyRequirement:_privacy,\n            discription:'share',\n            ipfsHash:_ipfsHash,\n            ipfsHashShare:'',\n            ipfsHashResult:'',\n            ownerAddress:msg.sender\n        });\n        ipfsOwner[_ipfsHash] = msg.sender;\n        requestsID[reqid].ipfsHashShare=_ipfsHash;\n    }    \n\n    function uploadResultFile(uint id ,string memory _ipfsHash) public managerOnly{\n        ipfsOwner[_ipfsHash] = msg.sender;\n        requestsID[id].ipfsHashResult=_ipfsHash;\n    }\n}\n\n",
  "sourcePath": "/home/jason/jason_project/src/contracts/Platform.sol",
  "compiler": {
    "name": "solc",
    "version": "0.7.0+commit.9e61f92b.Emscripten.clang"
  },
  "schemaVersion": "3.4.3",
  "updatedAt": "2021-11-05T06:43:38.153Z",
  "networkType": "ethereum",
  "devdoc": {
    "kind": "dev",
    "methods": {},
    "version": 1
  },
  "userdoc": {
    "kind": "user",
    "methods": {},
    "version": 1
  }
}