{
  "contractName": "Platform",
  "abi": [
    {
      "inputs": [],
      "stateMutability": "nonpayable",
      "type": "constructor"
    },
    {
      "anonymous": false,
      "inputs": [
        {
          "indexed": false,
          "internalType": "string",
          "name": "name",
          "type": "string"
        },
        {
          "indexed": false,
          "internalType": "string",
          "name": "email",
          "type": "string"
        },
        {
          "indexed": false,
          "internalType": "string",
          "name": "phone",
          "type": "string"
        },
        {
          "indexed": false,
          "internalType": "address",
          "name": "addr",
          "type": "address"
        }
      ],
      "name": "createMemEvent",
      "type": "event"
    },
    {
      "anonymous": false,
      "inputs": [
        {
          "indexed": false,
          "internalType": "string",
          "name": "ipfsHash",
          "type": "string"
        },
        {
          "indexed": false,
          "internalType": "address",
          "name": "ownerAddress",
          "type": "address"
        }
      ],
      "name": "createReqEvent",
      "type": "event"
    },
    {
      "anonymous": false,
      "inputs": [
        {
          "indexed": false,
          "internalType": "string",
          "name": "ipfsResultHash",
          "type": "string"
        },
        {
          "indexed": false,
          "internalType": "address",
          "name": "ownerAddress",
          "type": "address"
        }
      ],
      "name": "createResEvent",
      "type": "event"
    },
    {
      "anonymous": false,
      "inputs": [
        {
          "indexed": false,
          "internalType": "string",
          "name": "ipfsShareHash",
          "type": "string"
        },
        {
          "indexed": false,
          "internalType": "address",
          "name": "ownerAddress",
          "type": "address"
        }
      ],
      "name": "createShaEvent",
      "type": "event"
    },
    {
      "inputs": [],
      "name": "datasetCnt",
      "outputs": [
        {
          "internalType": "uint256",
          "name": "",
          "type": "uint256"
        }
      ],
      "stateMutability": "view",
      "type": "function",
      "constant": true
    },
    {
      "inputs": [
        {
          "internalType": "string",
          "name": "",
          "type": "string"
        }
      ],
      "name": "ipfsOwner",
      "outputs": [
        {
          "internalType": "address",
          "name": "",
          "type": "address"
        }
      ],
      "stateMutability": "view",
      "type": "function",
      "constant": true
    },
    {
      "inputs": [],
      "name": "manager",
      "outputs": [
        {
          "internalType": "address",
          "name": "",
          "type": "address"
        }
      ],
      "stateMutability": "view",
      "type": "function",
      "constant": true
    },
    {
      "inputs": [
        {
          "internalType": "address",
          "name": "",
          "type": "address"
        }
      ],
      "name": "memberCheck",
      "outputs": [
        {
          "internalType": "bool",
          "name": "",
          "type": "bool"
        }
      ],
      "stateMutability": "view",
      "type": "function",
      "constant": true
    },
    {
      "inputs": [
        {
          "internalType": "address",
          "name": "",
          "type": "address"
        }
      ],
      "name": "members",
      "outputs": [
        {
          "internalType": "string",
          "name": "name",
          "type": "string"
        },
        {
          "internalType": "string",
          "name": "email",
          "type": "string"
        },
        {
          "internalType": "string",
          "name": "phone",
          "type": "string"
        },
        {
          "internalType": "address",
          "name": "addr",
          "type": "address"
        }
      ],
      "stateMutability": "view",
      "type": "function",
      "constant": true
    },
    {
      "inputs": [
        {
          "internalType": "uint256",
          "name": "",
          "type": "uint256"
        }
      ],
      "name": "reqInformID",
      "outputs": [
        {
          "internalType": "uint256",
          "name": "ID",
          "type": "uint256"
        },
        {
          "internalType": "string",
          "name": "column",
          "type": "string"
        },
        {
          "internalType": "int256",
          "name": "privacyRequirement",
          "type": "int256"
        },
        {
          "internalType": "string",
          "name": "discription",
          "type": "string"
        },
        {
          "internalType": "address",
          "name": "ownerAddress",
          "type": "address"
        }
      ],
      "stateMutability": "view",
      "type": "function",
      "constant": true
    },
    {
      "inputs": [
        {
          "internalType": "uint256",
          "name": "",
          "type": "uint256"
        }
      ],
      "name": "requestsID",
      "outputs": [
        {
          "internalType": "uint256",
          "name": "ID",
          "type": "uint256"
        },
        {
          "internalType": "string",
          "name": "ipfsHash",
          "type": "string"
        },
        {
          "internalType": "string",
          "name": "ipfsHashShare",
          "type": "string"
        },
        {
          "internalType": "string",
          "name": "ipfsHashResult",
          "type": "string"
        },
        {
          "internalType": "address",
          "name": "ownerAddress",
          "type": "address"
        }
      ],
      "stateMutability": "view",
      "type": "function",
      "constant": true
    },
    {
      "inputs": [
        {
          "internalType": "uint256",
          "name": "",
          "type": "uint256"
        }
      ],
      "name": "shaInformID",
      "outputs": [
        {
          "internalType": "uint256",
          "name": "ID",
          "type": "uint256"
        },
        {
          "internalType": "string",
          "name": "column",
          "type": "string"
        },
        {
          "internalType": "int256",
          "name": "privacyRequirement",
          "type": "int256"
        },
        {
          "internalType": "string",
          "name": "discription",
          "type": "string"
        },
        {
          "internalType": "address",
          "name": "ownerAddress",
          "type": "address"
        }
      ],
      "stateMutability": "view",
      "type": "function",
      "constant": true
    },
    {
      "inputs": [
        {
          "internalType": "uint256",
          "name": "",
          "type": "uint256"
        }
      ],
      "name": "sharesID",
      "outputs": [
        {
          "internalType": "uint256",
          "name": "ID",
          "type": "uint256"
        },
        {
          "internalType": "string",
          "name": "ipfsHash",
          "type": "string"
        },
        {
          "internalType": "string",
          "name": "ipfsHashShare",
          "type": "string"
        },
        {
          "internalType": "string",
          "name": "ipfsHashResult",
          "type": "string"
        },
        {
          "internalType": "address",
          "name": "ownerAddress",
          "type": "address"
        }
      ],
      "stateMutability": "view",
      "type": "function",
      "constant": true
    },
    {
      "inputs": [],
      "name": "sharesetCnt",
      "outputs": [
        {
          "internalType": "uint256",
          "name": "",
          "type": "uint256"
        }
      ],
      "stateMutability": "view",
      "type": "function",
      "constant": true
    },
    {
      "inputs": [
        {
          "internalType": "string",
          "name": "_name",
          "type": "string"
        },
        {
          "internalType": "string",
          "name": "_email",
          "type": "string"
        },
        {
          "internalType": "string",
          "name": "_phone",
          "type": "string"
        }
      ],
      "name": "createMember",
      "outputs": [],
      "stateMutability": "nonpayable",
      "type": "function"
    },
    {
      "inputs": [
        {
          "internalType": "string",
          "name": "_ipfsHash",
          "type": "string"
        },
        {
          "internalType": "string",
          "name": "_column",
          "type": "string"
        },
        {
          "internalType": "int256",
          "name": "_privacy",
          "type": "int256"
        },
        {
          "internalType": "string",
          "name": "_discription",
          "type": "string"
        }
      ],
      "name": "createRequest",
      "outputs": [],
      "stateMutability": "nonpayable",
      "type": "function"
    },
    {
      "inputs": [
        {
          "internalType": "uint256",
          "name": "reqid",
          "type": "uint256"
        },
        {
          "internalType": "string",
          "name": "_ipfsHash",
          "type": "string"
        },
        {
          "internalType": "string",
          "name": "_column",
          "type": "string"
        },
        {
          "internalType": "int256",
          "name": "_privacy",
          "type": "int256"
        }
      ],
      "name": "createShare",
      "outputs": [],
      "stateMutability": "nonpayable",
      "type": "function"
    },
    {
      "inputs": [
        {
          "internalType": "uint256",
          "name": "id",
          "type": "uint256"
        },
        {
          "internalType": "string",
          "name": "_ipfsHash",
          "type": "string"
        }
      ],
      "name": "uploadResultFile",
      "outputs": [],
      "stateMutability": "nonpayable",
      "type": "function"
    }
  ],
  "bytecode": "0x60806040526000600155600060025534801561001a57600080fd5b50336000806101000a81548173ffffffffffffffffffffffffffffffffffffffff021916908373ffffffffffffffffffffffffffffffffffffffff1602179055506129028061006a6000396000f3fe608060405234801561001057600080fd5b50600436106100ea5760003560e01c8063a10722e91161008c578063d84139cc11610066578063d84139cc14610b80578063dc0b7be614610d23578063faf5a13d14610f16578063ffb6212a14610ffb576100ea565b8063a10722e914610813578063b6adfba914610831578063c6bdf0dd14610997576100ea565b8063436d802b116100c8578063436d802b146104a4578063481c6a75146105e25780637497796c146106165780638cad833414610670576100ea565b806308ae4b0c146100ef57806315e67d51146102a157806318a5d6d7146103df575b600080fd5b6101316004803603602081101561010557600080fd5b81019080803573ffffffffffffffffffffffffffffffffffffffff169060200190929190505050611019565b604051808060200180602001806020018573ffffffffffffffffffffffffffffffffffffffff168152602001848103845288818151815260200191508051906020019080838360005b8381101561019557808201518184015260208101905061017a565b50505050905090810190601f1680156101c25780820380516001836020036101000a031916815260200191505b50848103835287818151815260200191508051906020019080838360005b838110156101fb5780820151818401526020810190506101e0565b50505050905090810190601f1680156102285780820380516001836020036101000a031916815260200191505b50848103825286818151815260200191508051906020019080838360005b83811015610261578082015181840152602081019050610246565b50505050905090810190601f16801561028e5780820380516001836020036101000a031916815260200191505b5097505050505050505060405180910390f35b6102cd600480360360208110156102b757600080fd5b8101908080359060200190929190505050611231565b6040518086815260200180602001858152602001806020018473ffffffffffffffffffffffffffffffffffffffff168152602001838103835287818151815260200191508051906020019080838360005b8381101561033957808201518184015260208101905061031e565b50505050905090810190601f1680156103665780820380516001836020036101000a031916815260200191505b50838103825285818151815260200191508051906020019080838360005b8381101561039f578082015181840152602081019050610384565b50505050905090810190601f1680156103cc5780820380516001836020036101000a031916815260200191505b5097505050505050505060405180910390f35b6104a2600480360360408110156103f557600080fd5b81019080803590602001909291908035906020019064010000000081111561041c57600080fd5b82018360208201111561042e57600080fd5b8035906020019184600183028401116401000000008311171561045057600080fd5b91908080601f016020809104026020016040519081016040528093929190818152602001838380828437600081840152601f19601f8201169050808301925050505050505091929192905050506113b7565b005b6104d0600480360360208110156104ba57600080fd5b81019080803590602001909291905050506115a0565b6040518086815260200180602001858152602001806020018473ffffffffffffffffffffffffffffffffffffffff168152602001838103835287818151815260200191508051906020019080838360005b8381101561053c578082015181840152602081019050610521565b50505050905090810190601f1680156105695780820380516001836020036101000a031916815260200191505b50838103825285818151815260200191508051906020019080838360005b838110156105a2578082015181840152602081019050610587565b50505050905090810190601f1680156105cf5780820380516001836020036101000a031916815260200191505b5097505050505050505060405180910390f35b6105ea611726565b604051808273ffffffffffffffffffffffffffffffffffffffff16815260200191505060405180910390f35b6106586004803603602081101561062c57600080fd5b81019080803573ffffffffffffffffffffffffffffffffffffffff16906020019092919050505061174a565b60405180821515815260200191505060405180910390f35b61069c6004803603602081101561068657600080fd5b810190808035906020019092919050505061176a565b604051808681526020018060200180602001806020018573ffffffffffffffffffffffffffffffffffffffff168152602001848103845288818151815260200191508051906020019080838360005b838110156107065780820151818401526020810190506106eb565b50505050905090810190601f1680156107335780820380516001836020036101000a031916815260200191505b50848103835287818151815260200191508051906020019080838360005b8381101561076c578082015181840152602081019050610751565b50505050905090810190601f1680156107995780820380516001836020036101000a031916815260200191505b50848103825286818151815260200191508051906020019080838360005b838110156107d25780820151818401526020810190506107b7565b50505050905090810190601f1680156107ff5780820380516001836020036101000a031916815260200191505b509850505050505050505060405180910390f35b61081b611988565b6040518082815260200191505060405180910390f35b6109956004803603608081101561084757600080fd5b81019080803590602001909291908035906020019064010000000081111561086e57600080fd5b82018360208201111561088057600080fd5b803590602001918460018302840111640100000000831117156108a257600080fd5b91908080601f016020809104026020016040519081016040528093929190818152602001838380828437600081840152601f19601f8201169050808301925050505050505091929192908035906020019064010000000081111561090557600080fd5b82018360208201111561091757600080fd5b8035906020019184600183028401116401000000008311171561093957600080fd5b91908080601f016020809104026020016040519081016040528093929190818152602001838380828437600081840152601f19601f8201169050808301925050505050505091929192908035906020019092919050505061198e565b005b610b7e600480360360608110156109ad57600080fd5b81019080803590602001906401000000008111156109ca57600080fd5b8201836020820111156109dc57600080fd5b803590602001918460018302840111640100000000831117156109fe57600080fd5b91908080601f016020809104026020016040519081016040528093929190818152602001838380828437600081840152601f19601f82011690508083019250505050505050919291929080359060200190640100000000811115610a6157600080fd5b820183602082011115610a7357600080fd5b80359060200191846001830284011164010000000083111715610a9557600080fd5b91908080601f016020809104026020016040519081016040528093929190818152602001838380828437600081840152601f19601f82011690508083019250505050505050919291929080359060200190640100000000811115610af857600080fd5b820183602082011115610b0a57600080fd5b80359060200191846001830284011164010000000083111715610b2c57600080fd5b91908080601f016020809104026020016040519081016040528093929190818152602001838380828437600081840152601f19601f820116905080830192505050505050509192919290505050611dea565b005b610bac60048036036020811015610b9657600080fd5b81019080803590602001909291905050506120fe565b604051808681526020018060200180602001806020018573ffffffffffffffffffffffffffffffffffffffff168152602001848103845288818151815260200191508051906020019080838360005b83811015610c16578082015181840152602081019050610bfb565b50505050905090810190601f168015610c435780820380516001836020036101000a031916815260200191505b50848103835287818151815260200191508051906020019080838360005b83811015610c7c578082015181840152602081019050610c61565b50505050905090810190601f168015610ca95780820380516001836020036101000a031916815260200191505b50848103825286818151815260200191508051906020019080838360005b83811015610ce2578082015181840152602081019050610cc7565b50505050905090810190601f168015610d0f5780820380516001836020036101000a031916815260200191505b509850505050505050505060405180910390f35b610f1460048036036080811015610d3957600080fd5b8101908080359060200190640100000000811115610d5657600080fd5b820183602082011115610d6857600080fd5b80359060200191846001830284011164010000000083111715610d8a57600080fd5b91908080601f016020809104026020016040519081016040528093929190818152602001838380828437600081840152601f19601f82011690508083019250505050505050919291929080359060200190640100000000811115610ded57600080fd5b820183602082011115610dff57600080fd5b80359060200191846001830284011164010000000083111715610e2157600080fd5b91908080601f016020809104026020016040519081016040528093929190818152602001838380828437600081840152601f19601f8201169050808301925050505050505091929192908035906020019092919080359060200190640100000000811115610e8e57600080fd5b820183602082011115610ea057600080fd5b80359060200191846001830284011164010000000083111715610ec257600080fd5b91908080601f016020809104026020016040519081016040528093929190818152602001838380828437600081840152601f19601f82011690508083019250505050505050919291929050505061231c565b005b610fcf60048036036020811015610f2c57600080fd5b8101908080359060200190640100000000811115610f4957600080fd5b820183602082011115610f5b57600080fd5b80359060200191846001830284011164010000000083111715610f7d57600080fd5b91908080601f016020809104026020016040519081016040528093929190818152602001838380828437600081840152601f19601f820116905080830192505050505050509192919290505050612718565b604051808273ffffffffffffffffffffffffffffffffffffffff16815260200191505060405180910390f35b611003612761565b6040518082815260200191505060405180910390f35b6003602052806000526040600020600091509050806000018054600181600116156101000203166002900480601f0160208091040260200160405190810160405280929190818152602001828054600181600116156101000203166002900480156110c55780601f1061109a576101008083540402835291602001916110c5565b820191906000526020600020905b8154815290600101906020018083116110a857829003601f168201915b505050505090806001018054600181600116156101000203166002900480601f0160208091040260200160405190810160405280929190818152602001828054600181600116156101000203166002900480156111635780601f1061113857610100808354040283529160200191611163565b820191906000526020600020905b81548152906001019060200180831161114657829003601f168201915b505050505090806002018054600181600116156101000203166002900480601f0160208091040260200160405190810160405280929190818152602001828054600181600116156101000203166002900480156112015780601f106111d657610100808354040283529160200191611201565b820191906000526020600020905b8154815290600101906020018083116111e457829003601f168201915b5050505050908060030160009054906101000a900473ffffffffffffffffffffffffffffffffffffffff16905084565b6008602052806000526040600020600091509050806000015490806001018054600181600116156101000203166002900480601f0160208091040260200160405190810160405280929190818152602001828054600181600116156101000203166002900480156112e35780601f106112b8576101008083540402835291602001916112e3565b820191906000526020600020905b8154815290600101906020018083116112c657829003601f168201915b505050505090806002015490806003018054600181600116156101000203166002900480601f0160208091040260200160405190810160405280929190818152602001828054600181600116156101000203166002900480156113875780601f1061135c57610100808354040283529160200191611387565b820191906000526020600020905b81548152906001019060200180831161136a57829003601f168201915b5050505050908060040160009054906101000a900473ffffffffffffffffffffffffffffffffffffffff16905085565b60008054906101000a900473ffffffffffffffffffffffffffffffffffffffff1673ffffffffffffffffffffffffffffffffffffffff163373ffffffffffffffffffffffffffffffffffffffff161461140f57600080fd5b336009826040518082805190602001908083835b602083106114465780518252602082019150602081019050602083039250611423565b6001836020036101000a038019825116818451168082178552505050505050905001915050908152602001604051809103902060006101000a81548173ffffffffffffffffffffffffffffffffffffffff021916908373ffffffffffffffffffffffffffffffffffffffff160217905550806005600084815260200190815260200160002060030190805190602001906114e1929190612767565b507fca9d07ea062d940bd534121ded3389ad88771f0d462eb95ee253dc6383d91980813360405180806020018373ffffffffffffffffffffffffffffffffffffffff168152602001828103825284818151815260200191508051906020019080838360005b83811015611561578082015181840152602081019050611546565b50505050905090810190601f16801561158e5780820380516001836020036101000a031916815260200191505b50935050505060405180910390a15050565b6006602052806000526040600020600091509050806000015490806001018054600181600116156101000203166002900480601f0160208091040260200160405190810160405280929190818152602001828054600181600116156101000203166002900480156116525780601f1061162757610100808354040283529160200191611652565b820191906000526020600020905b81548152906001019060200180831161163557829003601f168201915b505050505090806002015490806003018054600181600116156101000203166002900480601f0160208091040260200160405190810160405280929190818152602001828054600181600116156101000203166002900480156116f65780601f106116cb576101008083540402835291602001916116f6565b820191906000526020600020905b8154815290600101906020018083116116d957829003601f168201915b5050505050908060040160009054906101000a900473ffffffffffffffffffffffffffffffffffffffff16905085565b60008054906101000a900473ffffffffffffffffffffffffffffffffffffffff1681565b60046020528060005260406000206000915054906101000a900460ff1681565b6005602052806000526040600020600091509050806000015490806001018054600181600116156101000203166002900480601f01602080910402602001604051908101604052809291908181526020018280546001816001161561010002031660029004801561181c5780601f106117f15761010080835404028352916020019161181c565b820191906000526020600020905b8154815290600101906020018083116117ff57829003601f168201915b505050505090806002018054600181600116156101000203166002900480601f0160208091040260200160405190810160405280929190818152602001828054600181600116156101000203166002900480156118ba5780601f1061188f576101008083540402835291602001916118ba565b820191906000526020600020905b81548152906001019060200180831161189d57829003601f168201915b505050505090806003018054600181600116156101000203166002900480601f0160208091040260200160405190810160405280929190818152602001828054600181600116156101000203166002900480156119585780601f1061192d57610100808354040283529160200191611958565b820191906000526020600020905b81548152906001019060200180831161193b57829003601f168201915b5050505050908060040160009054906101000a900473ffffffffffffffffffffffffffffffffffffffff16905085565b60025481565b60011515600460003373ffffffffffffffffffffffffffffffffffffffff1673ffffffffffffffffffffffffffffffffffffffff16815260200190815260200160002060009054906101000a900460ff161515146119eb57600080fd5b6119f36127e7565b6119fb61282c565b6002600081548092919060010191905055506040518060a0016040528060025481526020018681526020016040518060200160405280600081525081526020016040518060200160405280600081525081526020013373ffffffffffffffffffffffffffffffffffffffff1681525091506040518060a0016040528060025481526020018581526020018481526020016040518060400160405280600581526020017f736861726500000000000000000000000000000000000000000000000000000081525081526020013373ffffffffffffffffffffffffffffffffffffffff168152509050816007600084600001518152602001908152602001600020600082015181600001556020820151816001019080519060200190611b20929190612767565b506040820151816002019080519060200190611b3d929190612767565b506060820151816003019080519060200190611b5a929190612767565b5060808201518160040160006101000a81548173ffffffffffffffffffffffffffffffffffffffff021916908373ffffffffffffffffffffffffffffffffffffffff160217905550905050806008600083600001518152602001908152602001600020600082015181600001556020820151816001019080519060200190611be3929190612767565b50604082015181600201556060820151816003019080519060200190611c0a929190612767565b5060808201518160040160006101000a81548173ffffffffffffffffffffffffffffffffffffffff021916908373ffffffffffffffffffffffffffffffffffffffff160217905550905050336009866040518082805190602001908083835b60208310611c8c5780518252602082019150602081019050602083039250611c69565b6001836020036101000a038019825116818451168082178552505050505050905001915050908152602001604051809103902060006101000a81548173ffffffffffffffffffffffffffffffffffffffff021916908373ffffffffffffffffffffffffffffffffffffffff16021790555084600560008881526020019081526020016000206002019080519060200190611d27929190612767565b507f131fe79d54036a89938b9db5c0fbc36392e17a2be7e82dd616eb368a0f05d001853360405180806020018373ffffffffffffffffffffffffffffffffffffffff168152602001828103825284818151815260200191508051906020019080838360005b83811015611da7578082015181840152602081019050611d8c565b50505050905090810190601f168015611dd45780820380516001836020036101000a031916815260200191505b50935050505060405180910390a1505050505050565b611df2612871565b60405180608001604052808581526020018481526020018381526020013373ffffffffffffffffffffffffffffffffffffffff16815250905080600360003373ffffffffffffffffffffffffffffffffffffffff1673ffffffffffffffffffffffffffffffffffffffff1681526020019081526020016000206000820151816000019080519060200190611e87929190612767565b506020820151816001019080519060200190611ea4929190612767565b506040820151816002019080519060200190611ec1929190612767565b5060608201518160030160006101000a81548173ffffffffffffffffffffffffffffffffffffffff021916908373ffffffffffffffffffffffffffffffffffffffff1602179055509050506001600460003373ffffffffffffffffffffffffffffffffffffffff1673ffffffffffffffffffffffffffffffffffffffff16815260200190815260200160002060006101000a81548160ff0219169083151502179055507f650818a2cdc02e38dec94c8fe55f3250f585e75143a872d7edd65013eaac481284848433604051808060200180602001806020018573ffffffffffffffffffffffffffffffffffffffff168152602001848103845288818151815260200191508051906020019080838360005b83811015611fed578082015181840152602081019050611fd2565b50505050905090810190601f16801561201a5780820380516001836020036101000a031916815260200191505b50848103835287818151815260200191508051906020019080838360005b83811015612053578082015181840152602081019050612038565b50505050905090810190601f1680156120805780820380516001836020036101000a031916815260200191505b50848103825286818151815260200191508051906020019080838360005b838110156120b957808201518184015260208101905061209e565b50505050905090810190601f1680156120e65780820380516001836020036101000a031916815260200191505b5097505050505050505060405180910390a150505050565b6007602052806000526040600020600091509050806000015490806001018054600181600116156101000203166002900480601f0160208091040260200160405190810160405280929190818152602001828054600181600116156101000203166002900480156121b05780601f10612185576101008083540402835291602001916121b0565b820191906000526020600020905b81548152906001019060200180831161219357829003601f168201915b505050505090806002018054600181600116156101000203166002900480601f01602080910402602001604051908101604052809291908181526020018280546001816001161561010002031660029004801561224e5780601f106122235761010080835404028352916020019161224e565b820191906000526020600020905b81548152906001019060200180831161223157829003601f168201915b505050505090806003018054600181600116156101000203166002900480601f0160208091040260200160405190810160405280929190818152602001828054600181600116156101000203166002900480156122ec5780601f106122c1576101008083540402835291602001916122ec565b820191906000526020600020905b8154815290600101906020018083116122cf57829003601f168201915b5050505050908060040160009054906101000a900473ffffffffffffffffffffffffffffffffffffffff16905085565b60011515600460003373ffffffffffffffffffffffffffffffffffffffff1673ffffffffffffffffffffffffffffffffffffffff16815260200190815260200160002060009054906101000a900460ff1615151461237957600080fd5b6123816127e7565b61238961282c565b6001600081548092919060010191905055506040518060a0016040528060015481526020018781526020016040518060200160405280600081525081526020016040518060200160405280600081525081526020013373ffffffffffffffffffffffffffffffffffffffff1681525091506040518060a0016040528060015481526020018681526020018581526020018481526020013373ffffffffffffffffffffffffffffffffffffffff168152509050816005600084600001518152602001908152602001600020600082015181600001556020820151816001019080519060200190612479929190612767565b506040820151816002019080519060200190612496929190612767565b5060608201518160030190805190602001906124b3929190612767565b5060808201518160040160006101000a81548173ffffffffffffffffffffffffffffffffffffffff021916908373ffffffffffffffffffffffffffffffffffffffff16021790555090505080600660008360000151815260200190815260200160002060008201518160000155602082015181600101908051906020019061253c929190612767565b50604082015181600201556060820151816003019080519060200190612563929190612767565b5060808201518160040160006101000a81548173ffffffffffffffffffffffffffffffffffffffff021916908373ffffffffffffffffffffffffffffffffffffffff160217905550905050336009876040518082805190602001908083835b602083106125e557805182526020820191506020810190506020830392506125c2565b6001836020036101000a038019825116818451168082178552505050505050905001915050908152602001604051809103902060006101000a81548173ffffffffffffffffffffffffffffffffffffffff021916908373ffffffffffffffffffffffffffffffffffffffff1602179055507f39c603eef16f309906b32dab585b87c8aba60a6143003fe83acf11eaf0291214863360405180806020018373ffffffffffffffffffffffffffffffffffffffff168152602001828103825284818151815260200191508051906020019080838360005b838110156126d55780820151818401526020810190506126ba565b50505050905090810190601f1680156127025780820380516001836020036101000a031916815260200191505b50935050505060405180910390a1505050505050565b6009818051602081018201805184825260208301602085012081835280955050505050506000915054906101000a900473ffffffffffffffffffffffffffffffffffffffff1681565b60015481565b828054600181600116156101000203166002900490600052602060002090601f016020900481019282601f106127a857805160ff19168380011785556127d6565b828001600101855582156127d6579182015b828111156127d55782518255916020019190600101906127ba565b5b5090506127e391906128af565b5090565b6040518060a0016040528060008152602001606081526020016060815260200160608152602001600073ffffffffffffffffffffffffffffffffffffffff1681525090565b6040518060a0016040528060008152602001606081526020016000815260200160608152602001600073ffffffffffffffffffffffffffffffffffffffff1681525090565b6040518060800160405280606081526020016060815260200160608152602001600073ffffffffffffffffffffffffffffffffffffffff1681525090565b5b808211156128c85760008160009055506001016128b0565b509056fea2646970667358221220ddb5929ad52b1cfef64a80c9a1794211f9b1305a9247bded1b581629abe7532064736f6c63430007000033",
  "immutableReferences": {},
  "source": "pragma solidity >=0.7.0 <0.9.0;\n\ncontract Platform {\n    //\n    address public manager;\n    \n    //ID\n    uint public datasetCnt =0;\n    \n    //ID\n    uint public sharesetCnt =0;\n    \n    //\n    constructor(){\n        manager = msg.sender;\n    }\n    \n    //\n    struct Mem{\n        string name;\n        string email;\n        string phone;\n        address addr;\n    }\n    \n    ///\n    struct Dataset{\n        uint ID;\n        string ipfsHash;\n        string ipfsHashShare;\n        string ipfsHashResult;\n        address ownerAddress;\n    }\n\n    ///\n    struct DatasetInform{\n        uint ID;\n        string column;\n        int privacyRequirement;\n        string discription;\n        address ownerAddress;\n    }\n    \n\n    //\n    modifier memberOnly{\n        require(memberCheck[msg.sender]==true);\n        _;\n    }\n\n    //\n    modifier managerOnly{\n        require(msg.sender==manager);\n        _;\n    }\n    \n    //map\n    mapping (address => Mem) public members;\n    \n    //\n    mapping (address => bool) public memberCheck;\n\n    //ID\n    mapping (uint => Dataset) public requestsID;\n    \n    //ID\n    mapping (uint => DatasetInform) public reqInformID;\n    \n    //ID\n    mapping (uint => Dataset) public sharesID;\n    \n    //ID\n    mapping (uint => DatasetInform) public shaInformID;    \n    \n    //addressipfshash\n    mapping (string => address) public ipfsOwner;\n\n    event createMemEvent(\n        string name,\n        string email,\n        string phone,\n        address addr\n    );\n    \n    event createReqEvent(\n        string ipfsHash,\n        address ownerAddress\n    );\n    \n    event createShaEvent(\n        string ipfsShareHash,\n        address ownerAddress\n    );\n    \n    event createResEvent(\n        string ipfsResultHash,\n        address ownerAddress\n    );\n    //\n    function createMember(string memory _name, string memory _email, string memory _phone)public{\n        Mem memory m;\n        m = Mem({\n            name: _name,\n            email: _email,\n            phone:_phone,\n            addr: msg.sender\n        });\n        members[msg.sender] = m;\n        memberCheck[msg.sender]=true;\n        emit createMemEvent(\n            _name,\n            _email,\n            _phone,\n            msg.sender\n        );\n    }\n      \n    //\n    function createRequest(string memory _ipfsHash ,string memory _column,int _privacy,string memory _discription) public memberOnly{\n        Dataset memory res;\n        DatasetInform memory reqInf;\n        datasetCnt++;\n        \n        res=Dataset({\n            ID: datasetCnt,\n            ipfsHash:_ipfsHash,\n            ipfsHashShare:'',\n            ipfsHashResult:'',\n            ownerAddress:msg.sender\n        });\n        \n        reqInf=DatasetInform({\n            ID:datasetCnt,\n            column:_column,\n            privacyRequirement:_privacy,\n            discription:_discription,\n            ownerAddress:msg.sender\n        });\n        requestsID[res.ID] = res;\n        reqInformID[reqInf.ID]=reqInf;\n        \n        ipfsOwner[_ipfsHash] = msg.sender;\n        \n        emit createReqEvent(\n            _ipfsHash,\n            msg.sender\n        );\n    }\n    \n    //\n    function createShare(uint reqid,string memory _ipfsHash ,string memory _column,int _privacy) public memberOnly{\n        Dataset memory sha;\n        DatasetInform memory shaInf;\n        sharesetCnt++;\n        \n        sha=Dataset({\n            ID: sharesetCnt,\n            ipfsHash:_ipfsHash,\n            ipfsHashShare:'',\n            ipfsHashResult:'',\n            ownerAddress:msg.sender\n        });\n        \n        shaInf=DatasetInform({\n            ID:sharesetCnt,\n            column:_column,\n            privacyRequirement:_privacy,\n            discription:'share',\n            ownerAddress:msg.sender\n        });\n        sharesID[sha.ID]=sha;\n        shaInformID[shaInf.ID]=shaInf;\n        \n        ipfsOwner[_ipfsHash] = msg.sender;\n        requestsID[reqid].ipfsHashShare=_ipfsHash;\n        \n        emit createShaEvent(\n            _ipfsHash,\n            msg.sender\n        );\n    }    \n\n    function uploadResultFile(uint id ,string memory _ipfsHash) public managerOnly{\n        ipfsOwner[_ipfsHash] = msg.sender;\n        requestsID[id].ipfsHashResult=_ipfsHash;\n        \n        emit createResEvent(\n            _ipfsHash,\n            msg.sender\n        );\n    }\n}\n\n",
  "sourcePath": "/home/jason/jason_project/src/contracts/Platform.sol",
  "compiler": {
    "name": "solc",
    "version": "0.7.0+commit.9e61f92b.Emscripten.clang"
  },
  "schemaVersion": "3.4.3",
  "updatedAt": "2021-11-09T07:53:07.761Z",
  "networkType": "ethereum",
  "devdoc": {
    "kind": "dev",
    "methods": {},
    "version": 1
  },
  "userdoc": {
    "kind": "user",
    "methods": {},
    "version": 1
  }
}