{
  "contractName": "Platform",
  "abi": [
    {
      "inputs": [
        {
          "internalType": "address",
          "name": "",
          "type": "address"
        }
      ],
      "name": "memberCheck",
      "outputs": [
        {
          "internalType": "bool",
          "name": "",
          "type": "bool"
        }
      ],
      "stateMutability": "view",
      "type": "function",
      "constant": true
    },
    {
      "inputs": [
        {
          "internalType": "address",
          "name": "",
          "type": "address"
        }
      ],
      "name": "members",
      "outputs": [
        {
          "internalType": "string",
          "name": "name",
          "type": "string"
        },
        {
          "internalType": "string",
          "name": "email",
          "type": "string"
        },
        {
          "internalType": "string",
          "name": "phone",
          "type": "string"
        },
        {
          "internalType": "address",
          "name": "addr",
          "type": "address"
        }
      ],
      "stateMutability": "view",
      "type": "function",
      "constant": true
    },
    {
      "inputs": [],
      "name": "requestCnt",
      "outputs": [
        {
          "internalType": "uint256",
          "name": "",
          "type": "uint256"
        }
      ],
      "stateMutability": "view",
      "type": "function",
      "constant": true
    },
    {
      "inputs": [
        {
          "internalType": "uint256",
          "name": "",
          "type": "uint256"
        }
      ],
      "name": "requestsID",
      "outputs": [
        {
          "internalType": "uint256",
          "name": "ID",
          "type": "uint256"
        },
        {
          "internalType": "string",
          "name": "column",
          "type": "string"
        },
        {
          "internalType": "int256",
          "name": "privacy",
          "type": "int256"
        },
        {
          "internalType": "string",
          "name": "discription",
          "type": "string"
        },
        {
          "internalType": "address",
          "name": "ownerAddress",
          "type": "address"
        }
      ],
      "stateMutability": "view",
      "type": "function",
      "constant": true
    },
    {
      "inputs": [
        {
          "internalType": "string",
          "name": "_name",
          "type": "string"
        },
        {
          "internalType": "string",
          "name": "_email",
          "type": "string"
        },
        {
          "internalType": "string",
          "name": "_phone",
          "type": "string"
        }
      ],
      "name": "createMember",
      "outputs": [],
      "stateMutability": "nonpayable",
      "type": "function"
    },
    {
      "inputs": [],
      "name": "getMemberName",
      "outputs": [
        {
          "internalType": "string",
          "name": "",
          "type": "string"
        }
      ],
      "stateMutability": "view",
      "type": "function",
      "constant": true
    },
    {
      "inputs": [
        {
          "internalType": "string",
          "name": "_column",
          "type": "string"
        },
        {
          "internalType": "int256",
          "name": "_privacy",
          "type": "int256"
        },
        {
          "internalType": "string",
          "name": "_discription",
          "type": "string"
        }
      ],
      "name": "createRequest",
      "outputs": [],
      "stateMutability": "nonpayable",
      "type": "function"
    },
    {
      "inputs": [
        {
          "internalType": "uint256",
          "name": "id",
          "type": "uint256"
        }
      ],
      "name": "getMemberRequest",
      "outputs": [
        {
          "internalType": "string",
          "name": "",
          "type": "string"
        }
      ],
      "stateMutability": "view",
      "type": "function",
      "constant": true
    }
  ],
  "bytecode": "0x60806040526000805534801561001457600080fd5b50611205806100246000396000f3fe608060405234801561001057600080fd5b50600436106100885760003560e01c80637497796c1161005b5780637497796c1461043c5780638cad8334146104965780638ccf5631146105d4578063c6bdf0dd1461067b57610088565b806308ae4b0c1461008d578063282c90801461023f57806335920bda146102c25780636ba7ffd51461041e575b600080fd5b6100cf600480360360208110156100a357600080fd5b81019080803573ffffffffffffffffffffffffffffffffffffffff169060200190929190505050610864565b604051808060200180602001806020018573ffffffffffffffffffffffffffffffffffffffff168152602001848103845288818151815260200191508051906020019080838360005b83811015610133578082015181840152602081019050610118565b50505050905090810190601f1680156101605780820380516001836020036101000a031916815260200191505b50848103835287818151815260200191508051906020019080838360005b8381101561019957808201518184015260208101905061017e565b50505050905090810190601f1680156101c65780820380516001836020036101000a031916815260200191505b50848103825286818151815260200191508051906020019080838360005b838110156101ff5780820151818401526020810190506101e4565b50505050905090810190601f16801561022c5780820380516001836020036101000a031916815260200191505b5097505050505050505060405180910390f35b610247610a7c565b6040518080602001828103825283818151815260200191508051906020019080838360005b8381101561028757808201518184015260208101905061026c565b50505050905090810190601f1680156102b45780820380516001836020036101000a031916815260200191505b509250505060405180910390f35b61041c600480360360608110156102d857600080fd5b81019080803590602001906401000000008111156102f557600080fd5b82018360208201111561030757600080fd5b8035906020019184600183028401116401000000008311171561032957600080fd5b91908080601f016020809104026020016040519081016040528093929190818152602001838380828437600081840152601f19601f820116905080830192505050505050509192919290803590602001909291908035906020019064010000000081111561039657600080fd5b8201836020820111156103a857600080fd5b803590602001918460018302840111640100000000831117156103ca57600080fd5b91908080601f016020809104026020016040519081016040528093929190818152602001838380828437600081840152601f19601f820116905080830192505050505050509192919290505050610b5e565b005b610426610ccb565b6040518082815260200191505060405180910390f35b61047e6004803603602081101561045257600080fd5b81019080803573ffffffffffffffffffffffffffffffffffffffff169060200190929190505050610cd1565b60405180821515815260200191505060405180910390f35b6104c2600480360360208110156104ac57600080fd5b8101908080359060200190929190505050610cf1565b6040518086815260200180602001858152602001806020018473ffffffffffffffffffffffffffffffffffffffff168152602001838103835287818151815260200191508051906020019080838360005b8381101561052e578082015181840152602081019050610513565b50505050905090810190601f16801561055b5780820380516001836020036101000a031916815260200191505b50838103825285818151815260200191508051906020019080838360005b83811015610594578082015181840152602081019050610579565b50505050905090810190601f1680156105c15780820380516001836020036101000a031916815260200191505b5097505050505050505060405180910390f35b610600600480360360208110156105ea57600080fd5b8101908080359060200190929190505050610e77565b6040518080602001828103825283818151815260200191508051906020019080838360005b83811015610640578082015181840152602081019050610625565b50505050905090810190601f16801561066d5780820380516001836020036101000a031916815260200191505b509250505060405180910390f35b6108626004803603606081101561069157600080fd5b81019080803590602001906401000000008111156106ae57600080fd5b8201836020820111156106c057600080fd5b803590602001918460018302840111640100000000831117156106e257600080fd5b91908080601f016020809104026020016040519081016040528093929190818152602001838380828437600081840152601f19601f8201169050808301925050505050505091929192908035906020019064010000000081111561074557600080fd5b82018360208201111561075757600080fd5b8035906020019184600183028401116401000000008311171561077957600080fd5b91908080601f016020809104026020016040519081016040528093929190818152602001838380828437600081840152601f19601f820116905080830192505050505050509192919290803590602001906401000000008111156107dc57600080fd5b8201836020820111156107ee57600080fd5b8035906020019184600183028401116401000000008311171561081057600080fd5b91908080601f016020809104026020016040519081016040528093929190818152602001838380828437600081840152601f19601f820116905080830192505050505050509192919290505050610f2f565b005b6001602052806000526040600020600091509050806000018054600181600116156101000203166002900480601f0160208091040260200160405190810160405280929190818152602001828054600181600116156101000203166002900480156109105780601f106108e557610100808354040283529160200191610910565b820191906000526020600020905b8154815290600101906020018083116108f357829003601f168201915b505050505090806001018054600181600116156101000203166002900480601f0160208091040260200160405190810160405280929190818152602001828054600181600116156101000203166002900480156109ae5780601f10610983576101008083540402835291602001916109ae565b820191906000526020600020905b81548152906001019060200180831161099157829003601f168201915b505050505090806002018054600181600116156101000203166002900480601f016020809104026020016040519081016040528092919081815260200182805460018160011615610100020316600290048015610a4c5780601f10610a2157610100808354040283529160200191610a4c565b820191906000526020600020905b815481529060010190602001808311610a2f57829003601f168201915b5050505050908060030160009054906101000a900473ffffffffffffffffffffffffffffffffffffffff16905084565b6060600160003373ffffffffffffffffffffffffffffffffffffffff1673ffffffffffffffffffffffffffffffffffffffff1681526020019081526020016000206000018054600181600116156101000203166002900480601f016020809104026020016040519081016040528092919081815260200182805460018160011615610100020316600290048015610b545780601f10610b2957610100808354040283529160200191610b54565b820191906000526020600020905b815481529060010190602001808311610b3757829003601f168201915b5050505050905090565b60011515600260003373ffffffffffffffffffffffffffffffffffffffff1673ffffffffffffffffffffffffffffffffffffffff16815260200190815260200160002060009054906101000a900460ff16151514610bbb57600080fd5b610bc36110af565b60008081548092919060010191905055506040518060a0016040528060005481526020018581526020018481526020018381526020013373ffffffffffffffffffffffffffffffffffffffff168152509050806003600083600001518152602001908152602001600020600082015181600001556020820151816001019080519060200190610c539291906110f4565b50604082015181600201556060820151816003019080519060200190610c7a9291906110f4565b5060808201518160040160006101000a81548173ffffffffffffffffffffffffffffffffffffffff021916908373ffffffffffffffffffffffffffffffffffffffff16021790555090505050505050565b60005481565b60026020528060005260406000206000915054906101000a900460ff1681565b6003602052806000526040600020600091509050806000015490806001018054600181600116156101000203166002900480601f016020809104026020016040519081016040528092919081815260200182805460018160011615610100020316600290048015610da35780601f10610d7857610100808354040283529160200191610da3565b820191906000526020600020905b815481529060010190602001808311610d8657829003601f168201915b505050505090806002015490806003018054600181600116156101000203166002900480601f016020809104026020016040519081016040528092919081815260200182805460018160011615610100020316600290048015610e475780601f10610e1c57610100808354040283529160200191610e47565b820191906000526020600020905b815481529060010190602001808311610e2a57829003601f168201915b5050505050908060040160009054906101000a900473ffffffffffffffffffffffffffffffffffffffff16905085565b6060600360008381526020019081526020016000206003018054600181600116156101000203166002900480601f016020809104026020016040519081016040528092919081815260200182805460018160011615610100020316600290048015610f235780601f10610ef857610100808354040283529160200191610f23565b820191906000526020600020905b815481529060010190602001808311610f0657829003601f168201915b50505050509050919050565b610f37611174565b60405180608001604052808581526020018481526020018381526020013373ffffffffffffffffffffffffffffffffffffffff16815250905080600160003373ffffffffffffffffffffffffffffffffffffffff1673ffffffffffffffffffffffffffffffffffffffff1681526020019081526020016000206000820151816000019080519060200190610fcc9291906110f4565b506020820151816001019080519060200190610fe99291906110f4565b5060408201518160020190805190602001906110069291906110f4565b5060608201518160030160006101000a81548173ffffffffffffffffffffffffffffffffffffffff021916908373ffffffffffffffffffffffffffffffffffffffff1602179055509050506001600260003373ffffffffffffffffffffffffffffffffffffffff1673ffffffffffffffffffffffffffffffffffffffff16815260200190815260200160002060006101000a81548160ff02191690831515021790555050505050565b6040518060a0016040528060008152602001606081526020016000815260200160608152602001600073ffffffffffffffffffffffffffffffffffffffff1681525090565b828054600181600116156101000203166002900490600052602060002090601f016020900481019282601f1061113557805160ff1916838001178555611163565b82800160010185558215611163579182015b82811115611162578251825591602001919060010190611147565b5b50905061117091906111b2565b5090565b6040518060800160405280606081526020016060815260200160608152602001600073ffffffffffffffffffffffffffffffffffffffff1681525090565b5b808211156111cb5760008160009055506001016111b3565b509056fea2646970667358221220aefa9f35b8af2619b4f38b4f0d3caabefe144b021008ec33f004ae254160fda664736f6c63430007000033",
  "immutableReferences": {},
  "source": "pragma solidity >=0.7.0 <0.9.0;\n\ncontract Platform {\n    //計算資料要求的總數\n    uint public requestCnt =0;\n    \n    //成員結構\n    struct Mem{\n        string name;\n        string email;\n        string phone;\n        address addr;\n    }\n    \n    //需求結構\n    struct Request{\n        uint ID;\n        string column;\n        int privacy;\n        string discription;\n        address ownerAddress;\n    }\n    \n    //判斷是否為成員\n    modifier memberOnly{\n        require(memberCheck[msg.sender]==true);\n        _;\n    }\n    \n    //位址對應成員的map\n    mapping (address => Mem) public members;\n    \n    //判斷該位址是否已成為成員\n    mapping (address => bool) public memberCheck;\n\n    //資料要求的ID\n    mapping (uint => Request) public requestsID;\n    \n    //新增成員\n    function createMember(string memory _name, string memory _email, string memory _phone)public{\n        Mem memory m;\n        m = Mem({\n            name: _name,\n            email: _email,\n            phone:_phone,\n            addr: msg.sender\n        });\n        members[msg.sender] = m;\n        memberCheck[msg.sender]=true;\n    }\n    \n    //取得成員的名稱\n    function getMemberName() public view returns(string memory){\n        return members[msg.sender].name;\n    }\n\n    \n    //新增需求\n    function createRequest(string memory _column,int _privacy,string memory _discription) public memberOnly{\n        Request memory req;\n        requestCnt++;\n        req=Request({\n            ID: requestCnt,\n            column:_column,\n            privacy:_privacy,\n            discription:_discription,\n            ownerAddress:msg.sender\n        });\n        requestsID[req.ID] = req;\n    }\n    \n    //取得需求\n    function getMemberRequest(uint id) public view returns(string memory){\n        return requestsID[id].discription;\n    }\n}\n\n",
  "sourcePath": "/home/jason/jason_project/src/contracts/Platform.sol",
  "compiler": {
    "name": "solc",
    "version": "0.7.0+commit.9e61f92b.Emscripten.clang"
  },
  "schemaVersion": "3.4.3",
  "updatedAt": "2021-10-28T10:49:44.889Z",
  "networkType": "ethereum",
  "devdoc": {
    "kind": "dev",
    "methods": {},
    "version": 1
  },
  "userdoc": {
    "kind": "user",
    "methods": {},
    "version": 1
  }
}